:020000040800F2
:10000000000400206101000861120008611200086C
:1000100061120008611200086112000861120008F4
:10002000611200086112000861120008711B0008CB
:1000300061120008611200086112000861270008BF
:1000400061120008611200086112000861120008C4
:1000500061120008611200086112000861120008B4
:1000600061120008611200086112000831250008C1
:100070006125000891250008C1250008F125000828
:1000800021260008512600086112000861120008AC
:10009000712E000861120008611200086112000848
:1000A00061120008912B000861120008B12B0008B2
:1000B000D12B0008F12B0008112C00086112000858
:1000C00061120008B1280008B12900086112000877
:1000D0006112000861120008611200086112000834
:1000E0006112000861120008611200086112000824
:1000F0006112000861120008611200086112000814
:100100006112000861120008611200086112000803
:10011000412C0008611200086112000861120008F9
:1001200081260008B1260008E1260008F123000816
:1001300061120008611200086112000861120008D3
:1001400061120008611200086112000861120008C3
:1001500061120008611200086112000861120008B3
:1001600072B6224880F30988022080F31488BFF316
:100170006F8F01F035F803F06BF91D481D491E4AD9
:1001800091423CBF41F8040BFAE71C49174A9142DF
:100190003CBF41F8040BFAE719491A4A1A4B9A4234
:1001A0003EBF51F8040B42F8040BF8E70020174952
:1001B000174A91423CBF41F8040BFAE701F028F8D6
:1001C00001F016F8134C144DAC4203DA54F8041B3A
:1001D0008847F9E703F04CFD104C114DAC4203DAAF
:1001E00054F8041B8847F9E701F00AB8000800201A
:1001F0005555555500000020000400200004002043
:10020000F048000800080020EC080020F00800205A
:10021000441100206001000860010008600100082E
:100220006001000800000000000000000000000065
:100230002DE9F04FC1F80CD0C3689D46BDE8F08FA2
:10024000002383F311882846A047002001F048FAD4
:1002500001F0C6F900DFFEE700000000000000002A
:1002600081F0004102E000BF83F0004330B54FEA67
:1002700041044FEA430594EA050F08BF90EA020FD4
:100280001FBF54EA000C55EA020C7FEA645C7FEA67
:10029000655C00F0E2804FEA5454D4EB5555B8BF8A
:1002A0006D420CDD2C4480EA020281EA030382EAFB
:1002B000000083EA010180EA020281EA0303362D8D
:1002C00088BF30BD11F0004F4FEA01314FF4801C60
:1002D0004CEA113102D0404261EB410113F0004F72
:1002E0004FEA03334CEA133302D0524263EB430329
:1002F00094EA050F00F0A780A4F10104D5F1200EC7
:100300000DDB02FA0EFC22FA05F2801841F1000121
:1003100003FA0EF2801843FA05F359410EE0A5F1F5
:1003200020050EF1200E012A03FA0EFC28BF4CF026
:10033000020C43FA05F3C01851EBE37101F00045DC
:1003400007D54FF0000EDCF1000C7EEB00006EEBE9
:100350000101B1F5801F1BD3B1F5001F0CD3490873
:100360005FEA30004FEA3C0C04F101044FEA4452CA
:1003700012F5800F80F09A80BCF1004F08BF5FEA51
:10038000500C50F1000041EB045141EA050130BD31
:100390005FEA4C0C404141EB010111F4801FA4F1D4
:1003A0000104E9D191F0000F04BF01460020B1FA29
:1003B00081F308BF2033A3F10B03B3F120020CDA61
:1003C0000C3208DD02F1140CC2F10C0201FA0CF03F
:1003D00021FA02F10CE002F11402D8BFC2F1200CA4
:1003E00001FA02F120FA0CFCDCBF41EA0C0190405A
:1003F000E41AA2BF01EB0451294330BD6FEA0404A3
:100400001F3C1CDA0C340EDC04F11404C4F120028D
:1004100020FA04F001FA02F340EA030021FA04F39F
:1004200045EA030130BDC4F10C04C4F1200220FAF6
:1004300002F001FA04F340EA0300294630BD21FA34
:1004400004F0294630BD94F0000F83F4801306BFFA
:1004500081F480110134013D4EE77FEA645C18BFEE
:100460007FEA655C29D094EA050F08BF90EA020F85
:1004700005D054EA000C04BF1946104630BD91EA7D
:10048000030F1EBF0021002030BD5FEA545C05D180
:100490004000494128BF41F0004130BD14F58004BF
:1004A0003CBF01F5801130BD01F0004545F0FE4133
:1004B00041F470014FF0000030BD7FEA645C1ABF68
:1004C000194610467FEA655C1CBF0B46024650EA9F
:1004D000013406BF52EA033591EA030F41F40021CB
:1004E00030BD00BF90F0000F04BF0021704730B551
:1004F0004FF4806404F132044FF000054FF0000126
:1005000050E700BF90F0000F04BF0021704730B5E6
:100510004FF4806404F1320410F0004548BF4042BB
:100520004FF000013EE700BF42004FEAE2014FEA10
:1005300031014FEA02701FBF12F07F4393F07F4FEB
:1005400081F06051704792F0000F14BF93F07F4F1D
:10055000704730B54FF4607401F0004521F0004160
:1005600020E700BF50EA010208BF704730B54FF0E6
:1005700000050AE050EA010208BF704730B511F0EB
:10058000004502D5404261EB41014FF4806404F123
:1005900032045FEA915C3FF4DCAE4FF003025FEAA5
:1005A000DC0C18BF03325FEADC0C18BF033202EB2D
:1005B000DC02C2F1200300FA03FC20FA02F001FA87
:1005C00003FE40EA0E0021FA02F11444C1E600BF26
:1005D00070B54FF0FF0C4CF4E06C1CEA11541DBFD9
:1005E0001CEA135594EA0C0F95EA0C0F00F0DEF8A4
:1005F0002C4481EA030621EA4C5123EA4C5350EA89
:10060000013518BF52EA033541F4801143F48013D9
:1006100038D0A0FB02CE4FF00005E1FB02E506F06A
:100620000042E0FB03E54FF00006E1FB03569CF0BF
:10063000000F18BF4EF0010EA4F1FF04B6F5007FC5
:1006400064F5407404D25FEA4E0E6D4146EB060637
:1006500042EAC62141EA55514FEAC52040EA5E50C0
:100660004FEACE2EB4F1FD0C88BFBCF5E06F1ED86A
:10067000BEF1004F08BF5FEA500E50F1000041EBA1
:10068000045170BD06F0004646EA010140EA02004E
:1006900081EA0301B4EB5C04C2BFD4EB0C0541EA70
:1006A000045170BD41F480114FF0000E013C00F385
:1006B000AB8014F1360FDEBF002001F0004170BDA9
:1006C000C4F10004203C35DA0C341BDC04F11404C2
:1006D000C4F1200500FA05F320FA04F001FA05F24E
:1006E00040EA020001F0004221F0004110EBD3701B
:1006F00021FA04F642EB06015EEA430E08BF20EA47
:10070000D37070BDC4F10C04C4F1200500FA04F3E9
:1007100020FA05F001FA04F240EA020001F000417B
:1007200010EBD37041F100015EEA430E08BF20EAEE
:10073000D37070BDC4F1200500FA05F24EEA020E36
:1007400020FA04F301FA05F243EA020321FA04F065
:1007500001F0004121FA04F220EA020000EBD3701C
:100760005EEA430E08BF20EAD37070BD94F0000F1C
:100770000FD101F00046400041EB010111F4801F50
:1007800008BF013CF7D041EA060195F0000F18BF01
:10079000704703F00046520043EB030313F4801F3D
:1007A00008BF013DF7D043EA0603704794EA0C0FF7
:1007B0000CEA135518BF95EA0C0F0CD050EA41060D
:1007C00018BF52EA4306D1D181EA030101F000418A
:1007D0004FF0000070BD50EA410606BF10461946B2
:1007E00052EA430619D094EA0C0F02D150EA0136BE
:1007F00013D195EA0C0F05D152EA03361CBF1046FF
:1008000019460AD181EA030101F0004141F0FE419D
:1008100041F470014FF0000070BD41F0FE4141F421
:10082000780170BD70B54FF0FF0C4CF4E06C1CEA21
:1008300011541DBF1CEA135594EA0C0F95EA0C0FD6
:1008400000F0A7F8A4EB050481EA030E52EA033591
:100850004FEA013100F088804FEA03334FF08055B2
:1008600045EA131343EA12634FEA022245EA1115DF
:1008700045EA10654FEA00260EF000419D4208BF90
:10088000964244F1FD0404F5407402D25B084FEA3D
:100890003202B61A65EB03055B084FEA32024FF4E9
:1008A00080104FF4002CB6EB020E75EB030E22BF46
:1008B000B61A754640EA0C005B084FEA3202B6EB06
:1008C000020E75EB030E22BFB61A754640EA5C00B5
:1008D0005B084FEA3202B6EB020E75EB030E22BF45
:1008E000B61A754640EA9C005B084FEA3202B6EB46
:1008F000020E75EB030E22BFB61A754640EADC0005
:1009000055EA060E18D04FEA051545EA16754FEA66
:1009100006164FEAC30343EA52734FEAC2025FEA84
:100920001C1CC0D111F4801F0BD141EA00014FF013
:1009300000004FF0004CB6E711F4801F04BF0143E4
:100940000020B4F1FD0C88BFBCF5E06F3FF6AFAE00
:10095000B5EB030C04BFB6EB020C5FEA500C50F190
:10096000000041EB045170BD0EF0004E4EEA113113
:1009700014EB5C04C2BFD4EB0C0541EA045170BD1A
:1009800041F480114FF0000E013C90E645EA060E5E
:100990008DE60CEA135594EA0C0F08BF95EA0C0F8C
:1009A0003FF43BAF94EA0C0F0AD150EA01347FF4D4
:1009B00034AF95EA0C0F7FF425AF104619462CE7AB
:1009C00095EA0C0F06D152EA03353FF4FDAE10460E
:1009D000194622E750EA410618BF52EA43067FF45F
:1009E000C5AE50EA41047FF40DAF52EA43057FF4EF
:1009F000EBAE12E700000000000000000000000065
:100A00004FEA410212F5001215D211D56FF4787336
:100A1000B3EB625212D94FEAC12343F0004343EAD9
:100A2000505311F0004F23FA02F018BF40427047B4
:100A30004FF00000704750EA013005D111F000403E
:100A400008BF6FF0004070474FF00000704700BFD4
:100A50004FEA4102B2F1E04324BFB3F5001CDCF1E0
:100A6000FE5C0DD901F0004C4FEAC0024CEA507018
:100A7000B2F1004F40EB830008BF20F00100704747
:100A800011F0804F21D113F13872BCBF01F000404A
:100A9000704741F480114FEA5252C2F11802C2F17C
:100AA000200C10FA0CF320FA02F018BF40F00100FD
:100AB0004FEAC1234FEAD32303FA0CFC40EA0C00AF
:100AC00023FA02F34FEA4303CCE77FEA625307D1EC
:100AD00050EA01331EBF4FF0FE4040F44000704723
:100AE00001F0004040F0FE4040F40000704700BFBD
:100AF00080F0004002E000BF81F0004142001FBFD3
:100B00005FEA410392EA030F7FEA226C7FEA236CDB
:100B10006AD04FEA1262D2EB1363C1BFD2184140D0
:100B200048404140B8BF5B42192B88BF704710F066
:100B3000004F40F4000020F07F4018BF404211F009
:100B4000004F41F4000121F07F4118BF494292EA71
:100B5000030F3FD0A2F1010241FA03FC10EB0C009D
:100B6000C3F1200301FA03F100F0004302D549422A
:100B700060EB4000B0F5000F13D3B0F1807F06D3D7
:100B800040084FEA310102F10102FE2A51D2B1F1CF
:100B9000004F40EBC25008BF20F0010040EA0300C4
:100BA0007047490040EB000010F4000FA2F1010271
:100BB000EDD1B0FA80FCACF1080CB2EB0C0200FAFB
:100BC0000CF0AABF00EBC25052421843BCBFD04049
:100BD0001843704792F0000F81F4000106BF80F4C3
:100BE00000000132013BB5E74FEA41037FEA226C86
:100BF00018BF7FEA236C21D092EA030F04D092F051
:100C0000000F08BF0846704790EA010F1CBF002084
:100C1000704712F07F4F04D1400028BF40F00040E1
:100C2000704712F100723CBF00F50000704700F001
:100C3000004343F0FE4040F4000070477FEA226228
:100C400016BF08467FEA23630146420206BF5FEAF9
:100C5000412390EA010F40F4800070474FF00003F9
:100C600004E000BF10F0004348BF40425FEA000CC0
:100C700008BF704743F0964301464FF000001CE068
:100C800050EA010208BF70474FF000030AE000BFBE
:100C900050EA010208BF704711F0004302D54042FC
:100CA00061EB41015FEA010C02BF8446014600206E
:100CB00043F0B64308BFA3F18053A3F50003BCFA89
:100CC0008CF2083AA3EBC25310DB01FA02FC634436
:100CD00000FA02FCC2F12002BCF1004F20FA02F23D
:100CE00043EB020008BF20F00100704702F1200230
:100CF00001FA02FCC2F1200250EA4C0021FA02F291
:100D000043EB020008BF20EADC70704700000000DF
:100D10004FF0FF0C1CEAD0521EBF1CEAD15392EADE
:100D20000C0F93EA0C0F6FD01A4480EA010C4002BA
:100D300018BF5FEA41211ED04FF0006343EA501014
:100D400043EA5111A0FB01310CF00040B1F5000F56
:100D50003EBF490041EAD3715B0040EA010062F105
:100D60007F02FD2A1DD8B3F1004F40EBC25008BFEF
:100D700020F00100704790F0000F0CF0004C08BF0D
:100D800049024CEA502040EA51207F3AC2BFD2F1DA
:100D9000FF0340EAC250704740F400004FF00003E8
:100DA000013A5DDC12F1190FDCBF00F00040704722
:100DB000C2F10002410021FA02F1C2F1200200FA60
:100DC00002FC5FEA310040F1000053EA4C0308BF27
:100DD00020EADC70704792F0000F00F0004C02BF78
:100DE000400010F4000F013AF9D040EA0C0093F0F3
:100DF000000F01F0004C02BF490011F4000F013B4D
:100E0000F9D041EA0C018FE70CEAD15392EA0C0FBA
:100E100018BF93EA0C0F0AD030F0004C18BF31F025
:100E2000004CD8D180EA010000F00040704790F0FB
:100E3000000F17BF90F0004F084691F0000F91F09F
:100E4000004F14D092EA0C0F01D142020FD193EA65
:100E50000C0F03D14B0218BF084608D180EA0100ED
:100E600000F0004040F0FE4040F40000704740F0C9
:100E7000FE4040F4400070474FF0FF0C1CEAD05297
:100E80001EBF1CEAD15392EA0C0F93EA0C0F69D0F3
:100E9000A2EB030280EA010C49024FEA402037D05E
:100EA0004FF0805343EA111143EA10130CF0004055
:100EB0008B4238BF5B0042F17D024FF4000C8B4245
:100EC00024BF5B1A40EA0C00B3EB510F24BFA3EB25
:100ED000510340EA5C00B3EB910F24BFA3EB9103F5
:100EE00040EA9C00B3EBD10F24BFA3EBD10340EA4F
:100EF000DC001B0118BF5FEA1C1CE0D1FD2A3FF695
:100F000050AF8B4240EBC25008BF20F00100704749
:100F10000CF0004C4CEA50207F32C2BFD2F1FF03EC
:100F200040EAC250704740F400004FF00003013A1D
:100F300037E792F0000F00F0004C02BF400010F4C1
:100F4000000F013AF9D040EA0C0093F0000F01F0D5
:100F5000004C02BF490011F4000F013BF9D041EAF7
:100F60000C0195E70CEAD15392EA0C0F08D142022A
:100F70007FF47DAF93EA0C0F7FF470AF084676E7FD
:100F800093EA0C0F04D14B023FF44CAF08466EE7D6
:100F900030F0004C18BF31F0004CCAD130F00042A4
:100FA0007FF45CAF31F000437FF43CAF5FE700BFFC
:100FB0004FF0FF3C06E000BF4FF0010C02E000BF25
:100FC0004FF0010C4DF804CD4FEA40024FEA4103C7
:100FD0007FEA226C18BF7FEA236C11D001B052EA7D
:100FE000530C18BF90EA010F58BFB2EB030088BF43
:100FF000C81738BF6FEAE17018BF40F001007047B2
:101000007FEA226C02D15FEA402C05D17FEA236C93
:10101000E4D15FEA412CE1D05DF8040B704700BFDA
:10102000844608466146FFE70FB5FFF7C9FF002871
:1010300048BF10F1000F0FBD4DF808EDFFF7F4FFAA
:101040000CBF012000205DF808FB00BF4DF808ED43
:10105000FFF7EAFF34BF012000205DF808FB00BF66
:101060004DF808EDFFF7E0FF94BF012000205DF888
:1010700008FB00BF4DF808EDFFF7D2FF94BF012039
:1010800000205DF808FB00BF4DF808EDFFF7C8FF32
:1010900034BF012000205DF808FB00BF0000000005
:1010A0004FEA4002B2F1FE4F0FD34FF09E03B3EB75
:1010B00012620DD94FEA002343F0004310F0004FB5
:1010C00023FA02F018BF404270474FF0000070470B
:1010D00012F1610F01D1420205D110F0004008BFAA
:1010E0006FF0004070474FF00000704700000000B4
:1010F000844641EA000313F0030349D1403A23D365
:101100000B6803604B6843608B688360CB68C36087
:101110000B6903614B6943618B698361CB69C3616F
:101120000B6A03624B6A43628B6A8362CB6AC36257
:101130000B6B03634B6B43638B6B8363CB6BC3633F
:1011400040304031403ADBD230320BD30B68036081
:101150004B6843608B688360CB68C360103010318C
:10116000103AF3D20C3205D351F8043B40F8043B5B
:10117000043AF9D2043208D0D2071CBF11F8013B5F
:1011800000F8013B01D30B8803806046704700BF25
:10119000082A13D38B07B1D010F00303AED0C3F1EC
:1011A0000403D21ADB071CBF11F8013B00F8013B16
:1011B000A4D331F8023B20F8023B9FE7043AD9D38D
:1011C000013A11F8013B00F8013BF9D20B780370AA
:1011D0004B7843708B788370604670470000000046
:1011E000704700BF00000000000000000000000089
:1011F000704700BF00000000000000000000000079
:10120000FEE700BF0000000000000000000000003A
:10121000F0B4114E002506F1800796E81A00A342AB
:101220000DD21A46043951F8040F42F8040BA242B9
:10123000F9D3DA43144424F0030404342344F26859
:10124000934203D243F8045B9342FBD31036BE4271
:10125000E3D3F0BC704700BF404600080000000028
:10126000FEE700BF000000000000000000000000DA
:10127000FEE700BF000000000000000000000000CA
:101280004FF6FF011B4B70B500259D60D8681A4AC8
:1012900001400A431948DA60C268194942F0807275
:1012A000C2600A68202042F00102164C10260A6033
:1012B00082B0DE7783F8220000F0D2F800F050F818
:1012C00000F07EFA00F00CFC00F042FC20464021C9
:1012D00000F08EF9012244F8140C027485F3118891
:1012E00062B6D021009504F13C00074B00F098F95C
:1012F00002B070BD00ED00E00003FA05F0ED00E083
:10130000001000E014090020711200080000000025
:10131000F8B5104D2E46EA8B56F8143F013292B2C2
:10132000B342EA8314D01C89013CA4B21C817CB96D
:1013300020271A68D968DC6056606A6184F31188D6
:101340001869884787F311886B691A89002AF0D0D9
:10135000F8BD00BFF0080020000000000000000001
:101360004FF6FF70044B002103F114029883D983D8
:101370005A619A61704700BFF00800200000000029
:1013800030B40D4C03616369C2601A89914205D97A
:101390001B68891A1A8989B28A42F9D34FF6FF75F8
:1013A0005A68036042601060586001811A89511ABE
:1013B0001981A58330BC7047F008002000000000B0
:1013C00030B44FF6FF74036805891A8941682A44CE
:1013D0001A810B600568034B00226960C2609C8320
:1013E00030BC7047F0080020000000000000000042
:1013F00010B4202383F31188037C072B0ED8DFE879
:1014000003F0270D0D2308040D084269936801338A
:10141000936090E80C001A60026853604FF0FF344C
:10142000002281680D4B446102741B689A688A42ED
:10143000FBD25A680021036042601060586081F35B
:1014400011885DF8044B7047436900221A60E5E794
:10145000002383F311885DF8044B7047F0080020E7
:10146000024B00221B605B609A607047F00800200E
:1014700010B4044600228168074B02741B689A6806
:101480008A42FBD25A6820462360626014605C6026
:101490005DF8044B704700BFF0080020000000001A
:1014A000074B30B41A681969146801250874636021
:1014B0001A6115741C60104630BCFEF7B9BE00BF3F
:1014C000F008002000000000000000000000000004
:1014D0004FF6FF7330B5994287B012D005460C4CD9
:1014E00001A823690B4AFFF74BFF2846FFF7D8FFF7
:1014F000049B13B101A8FFF763FF2369586907B084
:1015000030BDFFF7CDFF024C2369586907B030BDED
:10151000F0080020F11300080000000000000000A7
:10152000144B70B41E69846805464161B0688442FA
:101530000CD800222A741B689A689442FBD95A6816
:101540002B606A6015605D6070BC70471A460021B0
:101550003174126891688842FBD950680124706028
:101560003260066056601D612C743146284670BC9E
:10157000FEF75EBEF0080020000000000000000042
:10158000044B1A681B6990689B68984294BF0020BE
:1015900001207047F008002000000000000000005B
:1015A0000D4AF0B410681469056801270026A16887
:1015B0002B466A60156010610774267400E01B6892
:1015C0009A688A42FBD85A68214623606260146098
:1015D0005C60F0BCFEF72CBEF008002000000000AC
:1015E000FFF7DEBF00000000000000000000000068
:1015F000F0B400F11C0400220227012600F11805B6
:10160000077486748561C4610462816001634274F9
:10161000C2628262F0BC704700000000000000005F
:101620002DE9F0479A460446202383F31188DFF81A
:1016300050902439089F4618002500F11C034FF0F4
:10164000010C00F1180E4FF00208C66040F801A02E
:101650007760C6F8209029468260026380F8108087
:1016600080F812C0C0F818E04574C5628562C36195
:101670000362FFF755FF85F311882046BDE8F08728
:10168000410200080000000000000000000000000F
:1016900008B50146202383F311880820FFF718FFBF
:1016A000002383F3118808BD000000000000000043
:1016B00038B50A4B1C69A36904F118059D426061A5
:1016C00007D01A681846A261FFF7D2FEA369AB42A1
:1016D000F7D10F20BDE83840FFF7E2BEF008002048
:1016E000202383F31188FFF7E3BF00BF0000000051
:1016F00003682BB10022026018465961FFF7B8BE9B
:10170000704700BF00000000000000000000000063
:1017100069B10246074B10B41B694468042083E892
:101720001400236053605DF8044BFFF7D1BE4FF007
:10173000FF307047F00800200000000000000000AB
:1017400002680346904209D010B4146810461C6029
:10175000636051615DF8044BFFF78ABE704700BFBC
:10176000014B5B6883607047001000E000000000E0
:101770000E4B0F495A688368C96DD31AC26830B4DA
:10178000D0E904455B1A01324168E418C26002687E
:1017900045F100058B4288BF43609342C0E9044590
:1017A00030BC836038BF0360704700BF001000E0AA
:1017B000F008002000000000000000000000000011
:1017C000D0B50C4C86B000234FF0FF32684600269F
:1017D0000027E3650193029303930092CDE9046728
:1017E000FFF7BEFF6846FFF7C3FF029BE36506B045
:1017F000D0BD00BFF0080020000000000000000085
:101800000023006040608360704700BF000000005C
:10181000836A027C19430A2A81620AD00B2A00D00B
:101820007047436919408B42FAD100234361FFF7A7
:101830001FBE43691942F8D1704700BF0000000085
:1018400070B504680646A0420D460DD0E3682B43F0
:10185000E36015B12269134203D06068A168FFF705
:10186000D7FF2468A642F1D170BD00BF0000000080
:1018700030B4029C00250A44856004620261006065
:101880004060C16081614161C36130BC704700BF8D
:101890004369826910B5934210D082685C1C0132A2
:1018A000826044611970426903699A4201D3C36836
:1018B00043610021FFF744FF002010BD8268002A29
:1018C000EBD06FF0030010BD00000000000000002E
:1018D00070B520230E46044683F31188C3693BB1DB
:1018E000984705E020463146FFF712FF002813DB3A
:1018F000A568002DF6D0A169A36825694A1C013BA3
:10190000AA42A36028BFE368A261087828BFA36148
:10191000002383F3118870BD85F3118870BD00BF6B
:101920002DE9F04F044683B0894693461D46D0F812
:101930001C80202787F311880026B2460197B8F152
:10194000000F07D02046C04704E020462946FFF795
:10195000DFFED0B9A768002FF7D0A269A368511C99
:10196000013BA161A360137809F8013B2369A269D7
:101970009A4224BFE368A3618AF311880136B34514
:1019800005D0019B83F31188D9E787F3118830468E
:1019900003B0BDE8F08F00BF0000000000000000B1
:1019A00030B4029C8D180561046200604060826062
:1019B000C16081614161C36130BC704700000000BB
:1019C000F8B504460F461646202383F3118805E038
:1019D00020463146FFF79CFE002817DBA568002D46
:1019E000F6D06269A368511C013B6161A360177066
:1019F000236962699A4224BFE3686361E3690BB1BA
:101A000020469847002080F31188F8BD85F311889F
:101A1000F8BD00BF00000000000000000000000052
:101A200038B5426983699A420FD082680569591CAA
:101A3000013282608161A9421C7801D3C36883614D
:101A40000021FFF77DFE204638BD8268002AECD0D9
:101A50006FF0020038BD00BF000000000000000071
:101A60002DE9F04F83B004468B4615460193C769B4
:101A70004FF0200888F311880026B146A3680BF1C7
:101A8000010AFBB16269A368501C013B6061A3605D
:101A90009BF800301370236962699A4224BFE3689F
:101AA00063610FB12046B84789F31188013D06F103
:101AB000010611D088F31188D346A3680BF1010AFF
:101AC000002BDFD1204601990093FFF721FE009BF8
:101AD0000028D3D083F31188304603B0BDE8F08FDF
:101AE000054A064B0648074922F0070223F0070380
:101AF00002600B60704700BF4F11002000C0002043
:101B0000240A0020200A002000000000000000003D
:101B100010B4202383F31188094C0A4B22681968FA
:101B2000C31D23F00703891A8B429DBF9B182360B6
:101B300010460020002383F311885DF8044B7047A2
:101B4000240A0020200A00200000000000000000FD
:101B5000044B0549002203F1100019609A60DA6015
:101B6000FFF74EBE280A0020111B000800000000ED
:101B7000EFF30983203383F30988002383F311886B
:101B8000704700BF000000000000000000000000DF
:101B9000202383F311880F4B5B6813F4006302D199
:101BA00083F31188704710B5EFF309844FF0807309
:101BB00044F8043CA4F1200383F30988FFF7E0FC18
:101BC00018B1054B44F8083C10BD044B44F8083CE0
:101BD00010BD00BF00ED00E05102000854020008F3
:101BE00008B500F03DFC0A4800F012FE00F020F8B5
:101BF00000F02EF800F03CF800F08AF800F000F950
:101C000000F0DEF801F02CFCBDE8084000F008B858
:101C10004048000800000000000000000000000034
:101C200000F0AEBD00000000000000000000000059
:101C300000F0B6BD00000000000000000000000041
:101C400000230122027043608360C3600361704718
:101C500000F026BF000000000000000000000000AF
:101C600001220023027043600C30FFF7C9BD00BFA2
:101C700000F02EBF00000000000000000000000087
:101C80000023012202704360C3600374704700BFE9
:101C90000C30FFF745BE00BF000000000000000050
:101CA0000C304FF6FF73FFF73BBE00BF0000000093
:101CB0003030FFF7D5BE00BF00000000000000007C
:101CC00030304FF6FF73FFF7CBBE00BF00000000BF
:101CD0000C30FFF7FDBD00BF000000000000000059
:101CE0000C304FF6FF71FFF7F3BD00BF000000009E
:101CF0003030FFF765BE00BF0000000000000000AC
:101D000030304FF6FF72FFF75BBE00BF00000000EF
:101D100001F026B8000000000000000000000000F4
:101D200030B5044615460B460C4983B040F8041BF9
:101D30000122009404F154016060227204F10C004D
:101D40008022FFF795FD00942B4604F1300004F14A
:101D5000D4018022FFF724FE03B030BDC046000846
:101D600010B52023044683F3118801F011F80223F3
:101D70002372002383F3118810BD00BF0000000010
:101D800038B5436904460D463BB1294604F10C00C1
:101D9000FFF77EFD00280BDB38BD04300421FFF780
:101DA0004FFD294604F10C00FFF772FD0028F3DA1D
:101DB000201D8021BDE83840FFF742BD0000000033
:101DC000704700BF0000000000000000000000009D
:101DD00010B5044690F8763080F87E3001F080F936
:101DE00063681B6813B120460121984703232370C1
:101DF00010BD00BF00000000000000000000000057
:101E000001F066B9000000000000000000000000C2
:101E100030B400F144052946002301241A464360EA
:101E2000047000F1280343F8042FAB424FF0000484
:101E300041F8042FF7D10481448130BC704700BFC2
:101E40000289438902F0010203F001030281438108
:101E500000F1280100F10C03002243F8042F8B420B
:101E6000FBD101F0E5B900BF000000000000000058
:101E7000F0B500EB8106D6F80CE047890126DEF8C4
:101E800018408E403E4300274681A26084E88800C7
:101E9000BDE8F04001F02CBA000000000000000096
:101EA000F0B500EB8106D6F80CE007890126DEF8D4
:101EB00014408E403E4300270681A26084E88800DB
:101EC000BDE8F04001F03CBA000000000000000056
:101ED00070B504460023022219460270A0F87C3037
:101EE00080F87E3080F87F300381438100F1280242
:101EF00000F1080343F8041F93424FF00005F9D1A5
:101F000084F86450204601F06BF963681B6823B1C4
:101F100020462946BDE87040184770BD000000000B
:101F2000426810B412680478052180F8804001707E
:101F30001AB104215DF8044B10475DF8044B70475B
:101F4000426890F88010126801700AB105211047AC
:101F5000704700BF0000000000000000000000000B
:101F6000F8B50446002380F8643000F1740201F0F3
:101F70009FF963689B6813B320469847F8B1E56EF4
:101F800094F8743094F87B1094F87A2042EA012295
:101F9000AA423CBF1546E2661B067AD4002D68D1E2
:101FA000052384F86430202383F3118820462946D2
:101FB0002A462B46FFF774FF85F31188F8BD94F885
:101FC000743013F0600711D02046002101F0F8F9B9
:101FD0002046002101F0DCF963681B6813B120463C
:101FE00006219847062384F86430F8BD94F87550AC
:101FF00003F07F0242EA0526B6F5407F00F0048137
:1020000016D9B6F5C06F00F0E68062D9B6F5106F4C
:102010006DD040F60242964200F0D680B6F5006FD1
:10202000D2D104F17F0201252767A266E566A9E700
:10203000022E00F0AF8040F2A580B6F5807F6BD015
:10204000B6F5817FC0D194F87620002ABCD194F8EF
:10205000782012F00F0107D01506204600F1F0801D
:1020600001F0C6F994F874300025A566E566256789
:1020700088E7042384F86430202383F31188002147
:10208000E36E2046A26EFFF7F3FE002383F3118870
:10209000F8BD7DB1012384F86430202383F31188D7
:1020A0000021E36E2046A26EFFF7FAFE002383F3C1
:1020B0001188F8BD032384F86430202383F311884A
:1020C000204629462A462B46FFF7D2FE85F3118883
:1020D000F8BD40F2023296422ED0B6F5A06F7FF4E2
:1020E00073AF5C4AA766E7663D4622674AE794F805
:1020F000762094F87F109142B6D02378042B2DD00F
:102100004AB3636884F87F201B680422227013B3EB
:102110002046022198471EE094F87620012A7FF499
:1021200053AFB4F87C20A76622F00202E766276767
:102130003D46A4F87C2025E794F87620002A7FF419
:1021400043AF94F8782012F00F018DD0120620468C
:102150007BD401F01DF994F8743085E7202383F3D4
:1021600011882046FFF76CFE87F31188636884F8B6
:102170007F701B68032121700BB12046984794F8AB
:102180007620BDE7EEB904F17C0202252667A2663F
:10219000E566F7E694F87810204611F0800F01F01C
:1021A0000F0141D101F064F8012841D002287FF4E9
:1021B0000BAF294BE066A3662767054694F8743099
:1021C000E0E6012E7FF400AF244902250022A1663B
:1021D000E5662267D6E6616894F8792094F878304D
:1021E0004D6843EA0223204694F8771094F876204D
:1021F000A84700283FF4E8AE43680568A366E56693
:10220000276794F87430BDE694F87620012A7FF4AD
:10221000DBAEB4F87C20A76642F00202E7662767CF
:102220003D46A4F87C20ADE601F032F80128BDD18E
:102230000B4BE666A3662767354694F87430A1E633
:1022400001F0EEF894F874300EE701F0B9F894F864
:10225000743009E7D11D0008F0460008E046000888
:10226000004700080000000000000000000000001F
:1022700038B590F864300446062B15D8DFE803F033
:102280000415250404350400002101F099F82046C6
:10229000002101F07DF863681B6813B12046062118
:1022A0009847062384F8643038BD90F87B1090F886
:1022B0007A30C26E43EA0123934206D9C3681D8A6D
:1022C000B2FBF5F305FB1325B5B1032384F86430A5
:1022D000202383F3118800210B4620460A46FFF78E
:1022E000C7FD002383F3118838BD036F03B19847FE
:1022F000002384F8643038BD202383F311882946F5
:102300002A462B46FFF7CCFD85F31188022384F87B
:10231000643038BD00000000000000000000000034
:1023200090F8642038B5062A0AD80123934013F0A8
:10233000670F044611D113F0080502D1DB061DD446
:1023400038BDC3689B695B68002BF9D1036F03B18B
:102350009847002384F8643038BD002101F030F83C
:102360002046002101F014F863681B6813B1204671
:1023700006219847062384F8643038BD052380F889
:102380006430202383F3118829462A462B46FFF721
:1023900087FD85F3118838BD0000000000000000B3
:1023A00043099B0010B4090100F1604403F160434C
:1023B00000F01F00012204F5614403F561438240EF
:1023C000C9B284F80013C3F880211A605DF8044B89
:1023D000704700BF00000000000000000000000087
:1023E000090100F16040C9B200F56D400176704707
:1023F00070B5184CD4F8C83094F8D820196894F8FF
:10240000D950D14011F00F010AD0134801FA02F659
:1024100050F835205E601AB100EBC5004068904767
:10242000D4F8DC2094F8EC00116894F8ED40C14039
:1024300011F00F010AD0084B01FA00F053F83450A4
:1024400050601DB103EBC4035868A847BDE8704055
:10245000FFF79EBB10470008480A0020000000005C
:102460000C4B4FF0FF310022186919611A61D868CE
:10247000D960DA60DA69084942F08052DA61DA69D3
:1024800042F00062DA610B6843F480730B6000F085
:102490003FB900BF00100240007000400000000083
:1024A0001F4B19461A6842F001021A600B681C4A59
:1024B0009B07FBD511461368002003F0F903136056
:1024C00050604B68164A13F00C0FFAD1114613688E
:1024D00043F4803313600B68114A9803FBD511460F
:1024E000536843F4E8135360136843F08073136038
:1024F0000B680B4A9B01FBD5114610B4094B0A4CE3
:10250000122054601860536843F0020353604B6814
:1025100003F00C03082BFAD15DF8044B704700BFA1
:10252000001002400020024000E41D0000000000F6
:1025300008B5074B196811F00F0105D0054A59601D
:1025400013680BB150689847BDE80840FFF720BBFF
:1025500000000240480A00200000000000000000C7
:10256000094B1968C1F3031159B1084810B58468C3
:102570000A015A600CB1C068A047BDE81040FFF7DF
:1025800007BBFFF705BB00BF00000240480A002060
:10259000094B1968C1F3032159B1084810B5046902
:1025A0000A025A600CB14069A047BDE81040FFF72D
:1025B000EFBAFFF7EDBA00BF00000240480A002062
:1025C000094B1968C1F3033159B1084810B5846942
:1025D0000A035A600CB1C069A047BDE81040FFF77C
:1025E000D7BAFFF7D5BA00BF00000240480A002062
:1025F000094B1968C1F3034159B1084810B5046A81
:102600000A045A600CB1406AA047BDE81040FFF7C9
:10261000BFBAFFF7BDBA00BF00000240480A002061
:10262000094B1968C1F3035159B1084810B5846AC0
:102630000A055A600CB1C06AA047BDE81040FFF718
:10264000A7BAFFF7A5BA00BF00000240480A002061
:10265000094B1968C1F3036159B1084810B5046BFF
:102660000A065A600CB1406BA047BDE81040FFF766
:102670008FBAFFF78DBA00BF00000240480A002061
:1026800008B5074B196811F00F0105D0054A5960CC
:10269000936B0BB1D06B9847BDE80840FFF778BA51
:1026A00000040240480A0020000000000000000072
:1026B000094B1968C1F3031159B1084810B5046CEE
:1026C0000A015A600CB1406CA047BDE81040FFF70A
:1026D0005FBAFFF75DBA00BF00040240480A00205D
:1026E000094B1968C1F3032159B1084810B5846C2E
:1026F0000A025A600CB1C06CA047BDE81040FFF759
:1027000047BAFFF745BA00BF00040240480A00205C
:1027100000200346014630B4094D0A4A0A4C28609D
:1027200050681432016044F8331001330C2BF7D198
:102730000649074A4FF0FF334B6030BC5360704787
:10274000A80A002010470008480A002000000240A4
:102750000004024000000000000000000000000033
:1027600008B5202383F31188FEF7D2FD002383F3FD
:102770001188BDE80840FFF70BBA00BF0000000059
:1027800048F69F40044B00210722586099600B20B7
:1027900008211A60FFF724BE10E000E000000000EE
:1027A000F8B5164C00272046FFF74AFA144B42F2C0
:1027B0008A5E19461348DFF850C08269012642F448
:1027C00000720925C4F818C0C4F81CE06361826176
:1027D0005F609E609D608B68094A1B07FBD41146B1
:1027E000052393608B68064A13F00403FAD1054968
:1027F00093608B6923F400738B61F8BDAC0A0020F1
:1028000000240140001002401047000800000000B2
:102810001E49F0B48B691E4A43F4FE7343F0010372
:102820008B6103681B4ED36083681B4D5360436804
:102830001A4C1360C368A1F57841F360476902F54B
:10284000A05277600769164B37608669EE60066AAA
:102850006E60C6692E60456AE560C56A6560856A16
:102860002560046BCC60846B4C60446B0C60C16B66
:10287000F0BCD160416C5160016C1160826CDA6017
:10288000026D5A60C26C1A60704700BF00100240AF
:1028900000080140000C01400010014000140140FC
:1028A00000200140000000000000000000000000C7
:1028B0003A4870B5446B3A4AA369656945EA0343EF
:1028C00023F07F4393424CD01ED8073A93423CD02A
:1028D0000132934210D16268C36A22F400725B68CD
:1028E00062601A6842F001021A60626842F4805223
:1028F00062605B68012B4BD915F00A0F18BFA36902
:10290000BDE87040FFF744B9264A934212D0023224
:102910009342F1D1C36A5B685E683EB32368028C60
:1029200043F4A06342F0010202842360BDE87040DA
:10293000FFF72EB96368026B23F40073526863607B
:10294000136843F001031360D6E7038C1A0A0BD017
:1029500003F0010343F0F00302F006021343236186
:10296000CAE7038CC3F347032361C5E763682022EA
:1029700023F400736360236843F40073236082F3DD
:1029800011881C303146FEF7B3FE86F31188B3E799
:10299000236823F480632360AEE700BFCC0A0020E5
:1029A0000800030082000700000000000000000093
:1029B0003649F8B5486B0D6B4769D5F804E0BAB2F3
:1029C00002F45F43DB434361DEF80060CB6A26F02C
:1029D0000F06CEF800602E7C0F242D6804FA06FE48
:1029E0005E68C5F804E03568D3F800E025F00F050F
:1029F00035601D7C02F48073AC409BB2CEF804407D
:102A0000002B3AD18B60950544BF43F002038B60E5
:102A100054050AD5446843F0040324F40074446068
:102A2000046844F4007404608B60160544BF43F0EE
:102A300008038B60550444BF43F020038B60D4042B
:102A400013D543F0100338048B601AD4202383F38A
:102A500011880F486FF00101FEF74AFE002383F34F
:102A60001188BDE8F840FFF793B83A0409D4002B69
:102A7000ECD1BDE8F840FFF78BB8012423468C6009
:102A8000C1E743F040038B60E0E700BFCC0A0020C1
:102A9000E80A002000000000000000000000000024
:102AA00010B5074C2046FFF7DBF8064B064900201F
:102AB000A3F11402E0616163E362226310BD00BF11
:102AC000CC0A0020604700080058004000000000C9
:102AD000F8B50F4D0F4F2846FFF7D2F80E4E0F4BAB
:102AE00004243846AB612C74FFF7CAF80C4D4FF044
:102AF00080433046BB613C74FFF7C2F8094B28465F
:102B0000B3613474FFF7BCF8074B2C74AB61F8BDAC
:102B1000040B0020200B00203C0B0020002C014067
:102B2000580B002000040040000800400000000096
:102B3000836970B51A69DC6805461440E2B2D24375
:102B4000A6071A6103D543681B6903B1984760075C
:102B500004D56B689B690BB128469847210704D5BB
:102B60006B681B6A0BB128469847E20604D56B6870
:102B70009B6A0BB128469847E30706D56B689B68AC
:102B80001BB12846BDE87040184770BD000000002A
:102B900008B50348FFF7CCFFBDE80840FEF7F8BFD3
:102BA000040B0020000000000000000000000000F6
:102BB00008B50348FFF7BCFFBDE80840FEF7E8BFD3
:102BC000040B0020000000000000000000000000D6
:102BD00008B50348FFF7ACFFBDE80840FEF7D8BFD3
:102BE000200B00200000000000000000000000009A
:102BF00008B50348FFF79CFFBDE80840FEF7C8BFD3
:102C00003C0B00200000000000000000000000005D
:102C100008B50348FFF78CFFBDE80840FEF7B8BFD2
:102C2000580B002000000000000000000000000021
:102C3000024AD36843F08003D3607047004C0040E1
:102C4000F8B5434ED6F85451EF682B68DA059CB2BC
:102C50004FD4202383F3118814F02F0F08D129E0DB
:102C6000A00669681DD42C68A4B214F02F0F21D0DF
:102C70002307F5D014F0080F0CBF00218021E007D6
:102C800048BF41F02001A20748BF41F0400163075F
:102C900048BF41F480712F48FEF7D2FDA006696855
:102CA000E1D5C9B22A48FFF76BF82C68A4B214F03A
:102CB0002F0FDDD1002383F31188390601D52206B9
:102CC00026D4630611D5202383F31188726CB36C6C
:102CD0001F489A4229D04FF6BF736FF040023B4025
:102CE000EB6000232A6083F31188BDE8F840FEF70B
:102CF0004FBF202383F311884FF40071301DFEF77E
:102D00009FFD6FF480732B60002383F31188A0E78D
:102D1000202383F311881048FEF782FE00280CDB85
:102D20006860002383F31188CBE7836B002BD2D03C
:102D300004301021FEF784FDCDE706480821FEF798
:102D40007FFD4FF63F733B4043F04003EB60E8E705
:102D5000740B0020780B0020A40B00200000000062
:102D600010B5054C00212046044AFEF7D9FF044B5C
:102D7000C4F8543110BD00BF740B0020312C000882
:102D8000004C0040000000000000000000000000B7
:102D900038B5194C037A002918BF0C46012B05469B
:102DA0001CD02168154AD5F85431B2FBF1F29A6073
:102DB000A288E088218942F4045240F0400042F0A9
:102DC0002C0241F0010192B280B289B20024186154
:102DD0005961DA601C601A685B6838BD084B98421C
:102DE000DFD1084A3420D3690C2143F40023D36196
:102DF000FFF7D6FAD5E700BF0048000800512502CA
:102E0000740B0020001002400000000000000000D1
:102E1000144B10B41C6D000104F1804404F5C0444F
:102E20002358002A03F10053204403F54053426025
:102E30004FEA430313DD541E6408043303EB840498
:102E4000023100E0043311F8022C11F8010CA34206
:102E500042EA002201F1020143F8042CF2D15DF8AC
:102E6000044B7047005C00400000000000000000C0
:102E70002DE9F04F934B83B05D6C6F0500F113812A
:102E80002E0500F10481EC0408D58E4B9A6C1004D9
:102E900040F110818B4B6FF480525A64A9050BD519
:102EA000DFF824A2DAF80430DB680BB1504698470B
:102EB000844B6FF400725A642A0440F1B780DFF843
:102EC00008A205F00F05AC0004F1804404F5B844F5
:102ED000D4F80080AE1C0AEB860318F0800F5F6800
:102EE0002FD0D7F814E02368DEF80400DEF80C10C9
:102EF00023F47843DEF8002023F0F003084443F481
:102F000000432360CEF80400101A00F0A6803A8A2D
:102F1000DEF80830824228BF02461944CEF80C2061
:102F2000CEF808102846FFF773FF236823F4F04318
:102F300023F0400383F0300343F4004343F0800365
:102F4000236018F4004F6CD0236818F4006F23F44A
:102F5000784323F0F00343F08003236040F08F8038
:102F6000584BD7F818E01B6DDEF808B003F180432A
:102F700003F5C04303EB05139A68DB6802F10059BF
:102F8000C3F3090C09F54059BCF1010F01934FEA55
:102F9000490962461AD948460BF1020350F8041B4E
:102FA000023A4FEA1128012A03F8021C03F8018CA7
:102FB00003F10203F2D8ACF102035B08019A01337A
:102FC00002F0010209EB83090BEB430B1AB1D9F8AC
:102FD00000308BF80030BEF80C007F8ADEF8081055
:102FE000DEF80420DEF80030013880B2614462442B
:102FF000CCEB03036745AEF80C00CEF80810CEF812
:103000000420CEF8003016D8A8B1236823F49043EA
:1030100023F0700383F4405343F4004343F08003F0
:103020002360284B5D6C2B043FF54BAF03B0BDE82C
:10303000F04FFEF7ADBD0AEB86067268BAF80A30AB
:103040000121A940D26823EA0103AAF80A30002A24
:10305000E7D029461C489047E3E71B4BD7F808C048
:103060001A890123AB4022EA0303174A1381BCF1FA
:10307000000F3FF466AF10462946E04761E70AEBD0
:103080008606736829465B680F489847C9E70D4B69
:103090006FF400611A6C0C4842F008021A6459641B
:1030A000FEF73EFFEFE66FF480625A640648FEF7D3
:1030B0000FFFE5E61A6C044822F008021A64FEF7D6
:1030C0003FFFE7E6005C0040CC0C00200000000061
:1030D0000148FEF79DBE00BFCC0C002000000000A0
:1030E00090F87E30024A43F08003D364704700BFFB
:1030F000005C004000000000000000000000000034
:1031000000EB8103F0B5DE68336813F0030357D09A
:10311000022B61D9032B53D14FF4C0642F4B72693A
:103120001B6D0F0103F1804303F5C043DD1982B12C
:10313000328A4FF0000EC5F804E0D0F884E0013286
:1031400022F001027244C0F8842044F0200443F8C5
:1031500007E0B369CBB1728A3E2A02F1FF3332D95C
:1031600043F01F0301335B116FEAC3636FEA5343FC
:103170009BB2EB60D0F88430013222F001021A4495
:10318000C0F8842044F40054AB6047F6700244EA6F
:10319000010323F4784323F0F003890043F4004350
:1031A00001F1804101F5B84143F080030B600B68E9
:1031B0002240534043F4004343F080030B60F0BDD2
:1031C0004FF40074AAE743F00103013303EBD37318
:1031D0005B0203F47C43CCE700249FE7005C0040E3
:1031E0004168F0B5C9680D4B00290D4D4FF0000442
:1031F0000CBF4FF41C474FF41E474FF0800E402683
:103200001C6521465C64C3F84CE01F64C0F8846010
:10321000C560BDE8F040FFF773BF00BF005C004031
:10322000104800080000000000000000000000003E
:1032300010B448F280044023C0F8843001218B0090
:1032400003F1804303F5B8431A68013142F40042A8
:1032500042F0800208291A601C60F0D15DF8044B2E
:10326000704700BF000000000000000000000000E8
:10327000054B53F8210010F4405004D0B0F5805FA6
:103280000CBF012002207047005C004000000000DD
:10329000054B53F8210010F0300003D010280CBF6C
:1032A00001200220704700BF005C004000000000C9
:1032B0000B4B02F108001B6D03F1804303F5C04383
:1032C00003EB01118B6803F1005303F540535B00DE
:1032D00053F8041B22F8021B8242F9D1704700BF49
:1032E000005C004000000000000000000000000042
:1032F00000EB8100C06882691368BBB1408A013B62
:103300000344B3FBF0F39381890001F1804101F59F
:10331000B8410B6823F4904323F0700383F44053C7
:1033200043F4004343F080030B6070470123938113
:10333000EAE700BF000000000000000000000000FD
:1033400000EB810038B5C3680C465D691A8A2B68AA
:1033500008469A4228BF1A46A968EA60FFF758FD56
:10336000A10001F1804101F5B8410B6823F4F0435D
:1033700023F0400383F0300343F4004343F0800321
:103380000B6038BD000000000000000000000000DD
:10339000890001F1804101F5B8410B6823F49043A5
:1033A00023F0700383F4805343F4004343F080031D
:1033B0000B607047000000000000000000000000EB
:1033C000890001F1804101F5B8410B6823F4F04315
:1033D00023F0400383F0100343F4004343F08003E1
:1033E0000B607047000000000000000000000000BB
:1033F000890001F1804101F5B8410B6803F44053A5
:10340000B3F5405F09D00B6823F4F04323F0400389
:1034100043F4204343F080030B607047000000003A
:10342000890001F1804101F5B8410B6803F03003D8
:10343000302B0BD00B6823F4F04323F0400383F0D0
:10344000200343F4004343F080030B60704700BF48
:10345000FFF726B800000000000000000000000098
:10346000024A536843F00073536070470000014004
:103470000246034B51680068926807C3704700BF5B
:103480000008002000000000000000000000000014
:10349000704700BF000000000000000000000000B6
:1034A000F0B400F10B07002B08BF0B463D46B1FB03
:1034B000F2F6B3FBF2F302FB161101F13004392CE2
:1034C000C8BF01F13704E4B205F8014D3146002BC5
:1034D000EDD17B1B034401E015F8014F00F8014BCF
:1034E0009842F9D1F0BC70470000000000000000D5
:1034F0002DE9F04F81460D46164682468DB00023D9
:10350000019329786B1C71B1252910D01D46019CAF
:10351000DAF80020504692680134019490472978E7
:103520006B1C0029F0D101980DB0BDE8F08F6A78CE
:1035300000272D2A03BFAA78AB1C4FF001094FF0DA
:103540000009302A03BF5A7801334FF030084FF09A
:103550002008591C05E0337804362A7803EB40072D
:103560000131A2F13003DBB2092B0D4607EB8700D6
:10357000F3D92A2AEFD02E2A4FF0000B43D002F0C5
:10358000DF034C2B4ED0A2F14401342900F27481A8
:10359000DFE811F0580172017201720172015801E5
:1035A000720172017201720172012B0172017201CA
:1035B0007201720172015F01720172016F01720189
:1035C0007201720172017201720172017201720163
:1035D0007201610158017201D50072017201580136
:1035E000720172017201720172012B01720172018A
:1035F0007201890072015F01720172016F013378FB
:10360000043603EB410B15F8012B0BEB8B01A2F1F8
:103610003003DBB2092BF4D92A2AF0D002F0DF0301
:103620004C2BB0D12B78002B00F02681A3F1440263
:103630000135342A00F21F81DFE812F004011D0178
:103640001D011D011D0104011D011D011D011D01A3
:103650001D01D7001D011D011D011D011D010B01D3
:103660001D011D011B011D011D011D011D011D016C
:103670001D011D011D011D011D010D0104011D0183
:1036800081001D011D0104011D011D011D011D0100
:103690001D01D7001D011D011D0135001D010B017C
:1036A0001D011D011B013468934B0436002C08BF1B
:1036B0001C462378BBF1000F00F0FC80002B00F0CB
:1036C000FE800BF1FF3B204602E0BBF1010B03D46F
:1036D00010F8013F002BF8D1001B3F1A00F1FF3B0F
:1036E0004FF0200827EAE777B9F1000F00F090804B
:1036F000BBF1000F13DBD946DAF8003009F1FF39CE
:103700009B68504614F8011B9847B9F1FF3FF3D16D
:10371000019B0133BBF1000FA8BF5B440193002F55
:103720003FF4EFAE3C46DAF8003050469B68414625
:103730009847013CF7D1019B3B440193E1E60736F2
:1037400026F00706D6E90001FDF782F900210836C8
:103750000446FDF77BFC002840F0C28006AB0BF16D
:10376000FF3BBBF1080F654A28BF4FF0080B0293DF
:1037700052F82B3020460493FDF792FC8346029BBF
:103780000A22184659460023FFF78AFE84462E2354
:103790000CF8013B2046CDF814C0CDF808C0FCF76A
:1037A000C3FECDE902015846FCF7ACFE02460B46CB
:1037B000DDE90201FCF758FD049CCDE90201204639
:1037C000FCF790FE02460B46DDE90201FCF700FF24
:1037D000FDF716F922464A4BDDF814C0A3FB02237D
:1037E0000146DB0860460A2204E00822316806A888
:1037F00004360023FFF754FE06AB1C46C01A00F146
:10380000FF3B3F1A27EAE777B9F1000F7FF470AF6B
:10381000C7F10009B9F1000F37D021782D293AD02E
:103820004F46DAF8003050469B68414698470137CA
:10383000F7D1019BBBF1000FC9EB03030193BFF666
:103840005AAF5EE631680436002942DB06A80A2238
:10385000CFE70A22CAE7336806AA0DF11900801AD9
:1038600000F1FF3B8DF8183004364FF02008144665
:10387000C7E71022BAE71A4606AC0DF11900001B83
:103880008DF8182000F1FF3BBBE7BBF1000F4F465E
:10389000BFF631AF35E6B8F1300FC1D1DAF80030FC
:1038A00050469B689847019B0134013301930BF10B
:1038B000FF3BB5E747F6FE7B002B7FF404AF27EA1A
:1038C000E777B9F1000F13D14FF0FF3B4FF020081D
:1038D0009EE72D2349428DF818300DF11900B6E707
:1038E0002D238DF8183004F100440DF1190336E74B
:1038F0004FF0200813E700BFA0480008B0480008B8
:10390000CDCCCCCC00000000000000000000000086
:103910000EB400B582B003AB53F8041B1A460193F2
:10392000FFF7E6FD02B05DF804EB03B0704700BF9F
:10393000054B0649064A59605A60186980F08000B4
:10394000C0F3C010704700BF00200240230167454C
:10395000AB89EFCD00000000000000000000000077
:10396000224B70B50344DE02B6F5C05F3BD2204B5C
:1039700004461B691A0632D41D49CB681C4ADB0772
:10398000FBD41146136906F1006543F0020305F507
:103990007A3513615561136943F040031361CB68B5
:1039A000134A13F00103FAD111691361136904F189
:1039B000082043F08003854213610BD22B6801334A
:1039C0000AD10C4B334403E053F8042B013203D1EA
:1039D0009842F9D8012070BD6FF00A0070BDFFF762
:1039E000A7FF0028C8D14FF0FF3070BD83FF1F0034
:1039F0000020024004E8030800000000000000006E
:103A00002DE9F043434B14461B6983B01A068046E8
:103A10000D4606465FD43F4AD3683E4FDB07FBD4D2
:103A200018F0010F31D1012C24D93A4A304696467C
:103A30002146AF1E136937F802CF43F0010313612B
:103A4000A0F800C0D368DB07FCD4DEF810300239E0
:103A500023F00103012900F10200CEF81030E9D86B
:103A6000A31E5B0802365A1C06EB430605EB420513
:103A700004F00104002C35D1264A0120136943F0DB
:103A80008003136103B0BDE8F08314F1000938F836
:103A9000023C18BF4FF001094A4629460DF10700C4
:103AA000ADF80630FDF724FB39463B69BDF806202A
:103AB00043F001033B6128F8022CCB68154AD80774
:103AC000FBD4136908EB490623F001034D44C9EB0D
:103AD00004041361A7E7FFF72BFF00289BD14FF0E9
:103AE000FF30CFE70B4B308819462A78ADF8060037
:103AF0008DF806201A69BDF8060042F001021A612D
:103B00003080CB68034ADB07FBD4136923F0010341
:103B10001361B1E700200240000000000000000037
:103B20002DE9F84FDFF85CA0DFF85C9056464D4673
:103B3000DFF858804FF0000B00241AF80400FDF75E
:103B40008DF80E49FDF7E4F8777849F834003846E7
:103B5000FDF784F80A49FDF7DBF86860B078FDF7F7
:103B60007DF80334A860033618350FB9C8F800B0E3
:103B7000092C08F10408E0D1BDE8F88FCDCCCC3D8C
:103B80000AD7233C2C080020780D0020C00D00200F
:103B90000246044B5168006803C3127A1A70FFF79B
:103BA000BFBF00BF2C080020000000000000000084
:103BB00030B40546054C69680068AA68EB680FC414
:103BC0002869696903C430BC704700BF3C08002005
:103BD00038B50A4C00680A4D20602088FDF742F88D
:103BE0000849FDF795F828606088FDF73BF806491D
:103BF000FDF78EF8054B186038BD00BF280800207F
:103C000024080020CDCCCC3DACC527373808002097
:103C100010B5054CE3684FF4FA6083F48053E36019
:103C2000FDF736FDF6E700BF000C01400000000084
:103C300070B50B4E33695B7C5A070CD4094CE368B2
:103C40004FF47A6083F40053E360FDF721FD33699C
:103C50005B7C5B07F3D50020BDE87040FDF740BDFD
:103C6000F0080020000C01400000000000000000EF
:103C700030B5184C83B0FDF7B3FFFDF701FB2046CC
:103C80000021FEF76DF8144A14495369204643F0A9
:103C900040035361FFF73CFE114B124900252046BB
:103CA0001C60FFF735FE4FF4807102220E4B009529
:103CB0000E48FDF7B5FC00950D484FF480710222C7
:103CC0000C4BFDF7ADFC4FF4C870FDF7E1FC00F0C4
:103CD0009FF8F8E7740B002000100240E04800084D
:103CE000D8100020E8480008113C0008E00E002031
:103CF000E00D0020313C0008000000000000000042
:103D0000034A00F07800136803431360704700BF54
:103D1000D00D0020000000000000000000000000A6
:103D200030B40B4B028884781A8018785978094A85
:103D300004F00F0500F00F0001F00F019C7082F8F5
:103D40006A5082F8680082F8691030BC704700BF82
:103D500058080020E40F00200000000000000000D0
:103D6000837801211A1F13F0030F4FEA9202094BC7
:103D70000CD00A449960074900EB820250F8043BDA
:103D800090420B60FAD1034B186870479960002A83
:103D9000F1D1F8E700300240000000000000000010
:103DA00070B50446084D8278286821460368043AB5
:103DB0001B689847286804F18401036804221B6883
:103DC000BDE87040184700BFD81000200000000078
:103DD00010B5054A054C0C2320466260A370FFF71E
:103DE000BFFFC4F8840010BD4641494C5C08002068
:103DF00010B5054A054C0C2320466260A370FFF7FE
:103E0000AFFFC4F8840010BD5F4F4B5F5C0800201B
:103E10002DE9F04F002385B00293202282F3118810
:103E2000B44A1268576983F31188DFF8EC820122E3
:103E3000C8F80020002F74D0AF4CB04EA1462546E4
:103E40003168FAB92378C9EB0101BD2B39D195F856
:103E500002A0AAF10803DAB2782A32D8042900F0C5
:103E6000B180D8F800B0BBF1000F00F08580002FC2
:103E700057D0D8F80020DFF8A0B297426AD3316853
:103E8000002ADFD09B4B4FF0010E18680368D3F86F
:103E900004C09B4B83F800E0E04703900398029B2B
:103EA000D8F800200344316802932378114400209D
:103EB000BD2B3160A7EB0207C8F80000C9EB010178
:103EC000C5D011F0FF0BD2D0BBF1010F37D0637812
:103ED000BD2B37D08B4B4FF0010A03E013F8012FB5
:103EE000BD2A21D00AF1010A5FFA8AFADA45F5D132
:103EF000CAEB0B0B5FFA8BFB04EB0B01BBF1030F5F
:103F0000316022D92B78BD2BDED1AB78A3F108022A
:103F1000782AD9D85B455AD80023C8F80030002F3A
:103F200090D105B0BDE8F08F5246C2EB0B02002ADB
:103F3000DEDD04EB0A01704800F0CAFAD8E7DA4681
:103F40005A46F2E701229246EFE7CBF10403C8F8A4
:103F500000308CE7674B3A461868316803685B6845
:103F600098473268DBF800303A44DB1B3260CBF80C
:103F7000003005B0BDE8F08FAAF104012944042205
:103F80006148019300F0A4FA019BCAF18802E81885
:103F90005946043000F004FB5748D5F884A0FFF7D9
:103FA000DFFE824518D0564A01234FF47A70137011
:103FB000FDF76EFB524B83F800B004233460C8F861
:103FC000003054E7AAF10403C8F800304FE7CBEB08
:103FD0000303C8F800304AE76B78443B2F2B31D8F5
:103FE000DFE813F0A40130009A01300030009001A6
:103FF000300030003000860130007C01300030009D
:104000003000720130003000300030006C013000B0
:104010005F0159013000550130003000300053017C
:104020004801400129011B010F010D010001EB00B6
:1040300030003000D300B40030009E006300300038
:104040004F003A00FFF7C4FEBD2200232A48227029
:10405000E370FFF7A5FEB0E7002180222B4800F0B7
:104060009FFA2B4A294B10685168127A03C31846ED
:10407000112300F80C29A370FFF772FEC4F8840026
:10408000E2E7244BDFF884E0186859689A68DB6837
:104090004FF0180CAEE80F00AEF1140084F802C027
:1040A000FFF75EFEC4F88400CEE7002180221748A7
:1040B00000F076FADFF864C0DFF850E0DCF80000CA
:1040C000DCF80C30DCF80410DCF808209CF814A0B4
:1040D000AEE80F00DCF810001D23CEF800008EF8CB
:1040E00004A0AEF11400A370FFF73AFEC4F88400F8
:1040F000AAE700BFD81000205C080020E4080020D8
:10410000E00F00205D080020E0080020600800208B
:104110002C0800202C100020E80800200C080020AB
:1041200080228748002100F03BFA864A10685168D7
:10413000834B92684FF0140E07C3A3F1100084F86C
:1041400002E0FFF70DFEC4F884007DE7DFF82CC223
:10415000DFF8ECE1DCF80000DCF80410DCF8082003
:10416000DCF80C304FF0200AAEE80F00DCF810004D
:10417000DCF8141084F802A0AEE80300AEF11C00D5
:10418000FFF7EEFDC4F884005EE7002180226C4852
:1041900000F006FA6C4B6A4893F802A0191D5246CB
:1041A000FCF7A6FF684884F802A0FFF7D9FD664A2D
:1041B0000023C4F88400937046E700218022604801
:1041C00000F0EEF9614A5E4B10685168128903C332
:1041D0001846122320F80C29A370FFF7C1FDC4F87C
:1041E000840031E7564B5A4A07CA83E80700142275
:1041F000181FA270FFF7B4FDC4F8840024E7554AE5
:1042000094E7554A4E4B10680C221860181FA27094
:10421000FFF7A6FDC4F8840016E7504A484B106823
:104220005168102203C3A3F10C00A270FFF798FDA0
:10423000C4F8840008E7DFF808A100218022504676
:1042400000F0AEF9464BAAF1040019889A78AAF852
:1042500000100B238AF80220A370FFF781FDC4F839
:104260008400F1E600F08CF801287FF4EBAEFFF754
:10427000BFFDE9E63B4A0C2312683B486260A3702D
:10428000FFF76EFDC4F88400DEE6384A4EE71020E2
:10429000FFF736FDEBE70820FFF732FDFFF7A8FD3B
:1042A000D2E6A378092B7FF4CDAE31492879314B82
:1042B000002208701A70FFF79BFDC5E6FFF798FD16
:1042C0002D4B00221A70BFE6A378112B7FF4BAAEF3
:1042D0001B48FFF75DFCFFF78BFDB5E6A378142BB9
:1042E0007FF4B0AE1648FFF7C3F8FFF781FDABE6E9
:1042F000A378202B7FF4A6AE1148FFF759FCFFF7F7
:1043000077FDA1E6A3781D2B7FF49CAE0C48FFF748
:10431000BFF8FFF76DFD97E6A3780C2B7FF492AE04
:104320000748FFF755FCFFF763FD8DE6A3780B2BDD
:104330007FF488AE0248FFF7F3FCFFF759FD83E6F0
:104340006008002000080020501000206C0D0020A4
:10435000C00D0020F00F002028080020D40D002000
:1043600058080020D00D00205C080020E40F002039
:10437000DC0D0020CC0D0020540800203C0800205B
:10438000474A2DE9F04F1646464FDFF82C91BE46BE
:104390004B46DFF82CA1444DDAF80000DAF804109F
:1043A000424CD5F800C003C6DFF818812168C2F876
:1043B00015C09AF808C0D8F800B086F800C0D8F840
:1043C00004A0D8F80800EE68D5F810C0D5F804802D
:1043D000C2F82A10A9682D7D83B00195C2F80DA0FE
:1043E0006568D4F808A0C2F81D109DF80410C2F842
:1043F00009B0C2F81100D4F80CB02D48C2F8216001
:10440000C2F825C082F82910C2F82E50294EC2F8F1
:104410001980C2F832A0216965695EF80C4FC2F8B4
:1044200036B0B0F800B090F802A0D6F800C0DEF8C0
:1044300004003E68DEF808E0C2F83A107968BF6808
:10444000A2F842B04FF0010BC2F83E50C2F84D1036
:1044500082F844A0C2F845C0C2F84960C2F855408D
:10446000C2F85900C2F85DE0C2F85170111F02F1A4
:104470005C05C9F808B051F8040F0F4CA942186048
:10448000F9D123687D20C2F86130FFF769FA044949
:1044900065220A48FFF7B4FAC0B203B0BDE8F08F56
:1044A000DC100020FC0F00200C0800203C0800203D
:1044B00058080020280800200030024000E80308C7
:1044C0002C08002000080020000000000000000070
:1044D0008842F0B50DD98B1898420AD28118002A6B
:1044E00054D09A1A13F8014D934201F8014DF9D1B5
:1044F000F0BD0F2A48D940EA01039B0747D1154672
:1045000000F1100401F1100353F8106C103D44F851
:10451000106C53F80C6C0F2D44F80C6C53F8086CAD
:1045200004F1100444F8186C53F8046C03F1100300
:1045300044F8146CE8D8A2F1100323F00F0302F042
:104540000F0E1033BEF1030F1944034421D90E4658
:1045500074461D1F56F8047B043C032C45F8047F69
:10456000F8D8AEF1040424F00304043423442144B5
:1045700002F0030252B1013B0A4411F8014B91428F
:1045800003F8014FF9D1F0BD0346F3E7F0BD034650
:10459000F1E77246EEE700BF0000000000000000F7
:1045A00070B4840746D0541E002A41D0CDB20346D1
:1045B00002E0621EE4B3144603F8015B9A07F8D1E7
:1045C000032C2ED9CDB245EA05250F2C45EA054529
:1045D00019D9264603F11002103E0F2E42F8105C46
:1045E00042F80C5C42F8085C42F8045C02F11002EC
:1045F000F2D8A4F1100222F00F0204F00F041032DE
:10460000032C13440DD91E462246043A032A46F8C9
:10461000045BFAD8221F22F003020432134404F090
:1046200003042CB1C9B21C4403F8011BA342FBD103
:1046300070BC704714460346C2E700BF000000008C
:10464000DC490008441100204411002044110020DE
:10465000DC4900080000000000000000000000002D
:10466000DC4900080000000000000000000000001D
:10467000DC4900080000000000000000000000000D
:10468000DC490008000000000000000000000000FD
:10469000DC490008000000000000000000000000ED
:1046A000DC490008000000000000000000000000DD
:1046B000DC490008000000000000000000000000CD
:1046C000C11C0008A11C0008011D0008E11C000815
:1046D000F11C0008D11C0008B11C0008911C000846
:1046E00000000000000000000000000000000000CA
:1046F00000000000000000000000000000000000BA
:1047000001000000000000000000000000000000A8
:10471000000002400800024001000000000000000C
:1047200000000B00000002401C00024002000000DC
:104730000000000004010C000000024030000240B4
:10474000040000000000000008020D00000002400C
:104750004400024008000000000000000C030E00AE
:10476000000002405800024010000000000000005D
:1047700010040F00000002406C0002402000000006
:1047800000000000140510000000024080000240FC
:104790004000000000000000180611000004024064
:1047A00008040240800000000000000000073800FC
:1047B000000402401C040240000100000000000050
:1047C00004083900000402403004024000020000E6
:1047D0000000000008093A000004024044040240BE
:1047E000000C0000000000000C0A3B000004024026
:1047F00058040240000C000000000000100B3B00B9
:1048000000C20100000000400000000000000000A5
:1048100000000000611F0008712200082123000829
:1048200040004000540D0020540D00200100000005
:10483000640D0020000000000000000000000000E7
:10484000FFFFFFFFAAAA08AA004084A8FFFFFFFFFE
:10485000AA4824FFAAFF2288FFFFFFFF008088AA42
:10486000AA4A8888FFFFFFFF44888888888888884C
:10487000FFFFFFFF8888888888888888FFFFFFFF00
:104880008888888888888888FFFFFFFF88888888CC
:1048900088888888000000000000000000000000F8
:1048A000286E756C6C2900000000000000000000FC
:1048B0000A00000064000000E80300001027000068
:1048C000A086010040420F008096980000E1F505A7
:1048D00000CA9A3B00000000000000000000000039
:1048E000776F310A00000000776F320A0000000085
:1048F000000E0003000E000300100003E903DC05B6
:10490000D00705EA03DC05D00705EB03DC05D0077B
:10491000050000000000F0412C01640001000004CB
:1049200000000700000000006F12833AC5FF3C0042
:1049300000001400C6FF3C0000001400A6FF590050
:1049400000001401010000000011AA00BD000800D1
:104950000000000000000000000000000000000057
:104960000000000000000000000000000000000047
:104970000000000000000000000000000000000037
:104980000000000000000000000000000000000027
:104990000000000000000000000000000000000017
:1049A0000000000000000000000000000000000007
:1049B00000000000000000000000000000000000F7
:1049C00000000000000000000000000000000000E7
:0C49D000FFFFFFFF5C0800200400000057
:04000005080001618D
:00000001FF
