:020000040800F2
:100000000004002061010008711500087115000846
:1000100071150008711500087115000871150008A8
:10002000711500087115000871150008713000087D
:100030007115000871150008711500087147000856
:100040007115000871150008711500087115000878
:100050007115000871150008711500087115000868
:100060007115000871150008711500084144000859
:1000700071440008A1440008D1440008014500086B
:100080003145000861450008711500087115000828
:10009000215200087115000871150008711500083B
:1000A00071150008414F000871150008614F0008E4
:1000B000814F0008A14F0008C14F000871150008CA
:1000C00071150008D1490008D14A000871150008CF
:1000D00071150008711500087115000871150008E8
:1000E00071150008711500087115000871150008D8
:1000F00071150008711500087115000871150008C8
:1001000071150008711500087115000871150008B7
:10011000F14F0008711500087115000871150008ED
:1001200091450008C1450008F14500080143000859
:100130007115000871150008711500087115000887
:100140007115000871150008711500087115000877
:100150007115000871150008711500087115000867
:1001600072B6224880F30988022080F31488BFF316
:100170006F8F01F0BDF905F08BFB1D481D491E4A2C
:1001800091423CBF41F8040BFAE71C49174A9142DF
:100190003CBF41F8040BFAE719491A4A1A4B9A4234
:1001A0003EBF51F8040B42F8040BF8E70020174952
:1001B000174A91423CBF41F8040BFAE701F0B0F94D
:1001C00001F09EF9134C144DAC4203DA54F8041BB1
:1001D0008847F9E70AF0CCFF104C114DAC4203DA26
:1001E00054F8041B8847F9E701F092B90008002091
:1001F0005555555500000020000400200004002043
:1002000040ED0008000800205C1100206011002073
:10021000D030002060010008600100086001000883
:100220006001000800000000000000000000000065
:100230002DE9F04FC1F80CD0C3689D46BDE8F08FA2
:10024000002383F311882846A047002001F0F8FC22
:1002500001F0E6FB00DFFEE7000000000000000008
:1002600081F0004102E000BF83F0004330B54FEA67
:1002700041044FEA430594EA050F08BF90EA020FD4
:100280001FBF54EA000C55EA020C7FEA645C7FEA67
:10029000655C00F0E2804FEA5454D4EB5555B8BF8A
:1002A0006D420CDD2C4480EA020281EA030382EAFB
:1002B000000083EA010180EA020281EA0303362D8D
:1002C00088BF30BD11F0004F4FEA01314FF4801C60
:1002D0004CEA113102D0404261EB410113F0004F72
:1002E0004FEA03334CEA133302D0524263EB430329
:1002F00094EA050F00F0A780A4F10104D5F1200EC7
:100300000DDB02FA0EFC22FA05F2801841F1000121
:1003100003FA0EF2801843FA05F359410EE0A5F1F5
:1003200020050EF1200E012A03FA0EFC28BF4CF026
:10033000020C43FA05F3C01851EBE37101F00045DC
:1003400007D54FF0000EDCF1000C7EEB00006EEBE9
:100350000101B1F5801F1BD3B1F5001F0CD3490873
:100360005FEA30004FEA3C0C04F101044FEA4452CA
:1003700012F5800F80F09A80BCF1004F08BF5FEA51
:10038000500C50F1000041EB045141EA050130BD31
:100390005FEA4C0C404141EB010111F4801FA4F1D4
:1003A0000104E9D191F0000F04BF01460020B1FA29
:1003B00081F308BF2033A3F10B03B3F120020CDA61
:1003C0000C3208DD02F1140CC2F10C0201FA0CF03F
:1003D00021FA02F10CE002F11402D8BFC2F1200CA4
:1003E00001FA02F120FA0CFCDCBF41EA0C0190405A
:1003F000E41AA2BF01EB0451294330BD6FEA0404A3
:100400001F3C1CDA0C340EDC04F11404C4F120028D
:1004100020FA04F001FA02F340EA030021FA04F39F
:1004200045EA030130BDC4F10C04C4F1200220FAF6
:1004300002F001FA04F340EA0300294630BD21FA34
:1004400004F0294630BD94F0000F83F4801306BFFA
:1004500081F480110134013D4EE77FEA645C18BFEE
:100460007FEA655C29D094EA050F08BF90EA020F85
:1004700005D054EA000C04BF1946104630BD91EA7D
:10048000030F1EBF0021002030BD5FEA545C05D180
:100490004000494128BF41F0004130BD14F58004BF
:1004A0003CBF01F5801130BD01F0004545F0FE4133
:1004B00041F470014FF0000030BD7FEA645C1ABF68
:1004C000194610467FEA655C1CBF0B46024650EA9F
:1004D000013406BF52EA033591EA030F41F40021CB
:1004E00030BD00BF90F0000F04BF0021704730B551
:1004F0004FF4806404F132044FF000054FF0000126
:1005000050E700BF90F0000F04BF0021704730B5E6
:100510004FF4806404F1320410F0004548BF4042BB
:100520004FF000013EE700BF42004FEAE2014FEA10
:1005300031014FEA02701FBF12F07F4393F07F4FEB
:1005400081F06051704792F0000F14BF93F07F4F1D
:10055000704730B54FF4607401F0004521F0004160
:1005600020E700BF50EA010208BF704730B54FF0E6
:1005700000050AE050EA010208BF704730B511F0EB
:10058000004502D5404261EB41014FF4806404F123
:1005900032045FEA915C3FF4DCAE4FF003025FEAA5
:1005A000DC0C18BF03325FEADC0C18BF033202EB2D
:1005B000DC02C2F1200300FA03FC20FA02F001FA87
:1005C00003FE40EA0E0021FA02F11444C1E600BF26
:1005D00070B54FF0FF0C4CF4E06C1CEA11541DBFD9
:1005E0001CEA135594EA0C0F95EA0C0F00F0DEF8A4
:1005F0002C4481EA030621EA4C5123EA4C5350EA89
:10060000013518BF52EA033541F4801143F48013D9
:1006100038D0A0FB02CE4FF00005E1FB02E506F06A
:100620000042E0FB03E54FF00006E1FB03569CF0BF
:10063000000F18BF4EF0010EA4F1FF04B6F5007FC5
:1006400064F5407404D25FEA4E0E6D4146EB060637
:1006500042EAC62141EA55514FEAC52040EA5E50C0
:100660004FEACE2EB4F1FD0C88BFBCF5E06F1ED86A
:10067000BEF1004F08BF5FEA500E50F1000041EBA1
:10068000045170BD06F0004646EA010140EA02004E
:1006900081EA0301B4EB5C04C2BFD4EB0C0541EA70
:1006A000045170BD41F480114FF0000E013C00F385
:1006B000AB8014F1360FDEBF002001F0004170BDA9
:1006C000C4F10004203C35DA0C341BDC04F11404C2
:1006D000C4F1200500FA05F320FA04F001FA05F24E
:1006E00040EA020001F0004221F0004110EBD3701B
:1006F00021FA04F642EB06015EEA430E08BF20EA47
:10070000D37070BDC4F10C04C4F1200500FA04F3E9
:1007100020FA05F001FA04F240EA020001F000417B
:1007200010EBD37041F100015EEA430E08BF20EAEE
:10073000D37070BDC4F1200500FA05F24EEA020E36
:1007400020FA04F301FA05F243EA020321FA04F065
:1007500001F0004121FA04F220EA020000EBD3701C
:100760005EEA430E08BF20EAD37070BD94F0000F1C
:100770000FD101F00046400041EB010111F4801F50
:1007800008BF013CF7D041EA060195F0000F18BF01
:10079000704703F00046520043EB030313F4801F3D
:1007A00008BF013DF7D043EA0603704794EA0C0FF7
:1007B0000CEA135518BF95EA0C0F0CD050EA41060D
:1007C00018BF52EA4306D1D181EA030101F000418A
:1007D0004FF0000070BD50EA410606BF10461946B2
:1007E00052EA430619D094EA0C0F02D150EA0136BE
:1007F00013D195EA0C0F05D152EA03361CBF1046FF
:1008000019460AD181EA030101F0004141F0FE419D
:1008100041F470014FF0000070BD41F0FE4141F421
:10082000780170BD70B54FF0FF0C4CF4E06C1CEA21
:1008300011541DBF1CEA135594EA0C0F95EA0C0FD6
:1008400000F0A7F8A4EB050481EA030E52EA033591
:100850004FEA013100F088804FEA03334FF08055B2
:1008600045EA131343EA12634FEA022245EA1115DF
:1008700045EA10654FEA00260EF000419D4208BF90
:10088000964244F1FD0404F5407402D25B084FEA3D
:100890003202B61A65EB03055B084FEA32024FF4E9
:1008A00080104FF4002CB6EB020E75EB030E22BF46
:1008B000B61A754640EA0C005B084FEA3202B6EB06
:1008C000020E75EB030E22BFB61A754640EA5C00B5
:1008D0005B084FEA3202B6EB020E75EB030E22BF45
:1008E000B61A754640EA9C005B084FEA3202B6EB46
:1008F000020E75EB030E22BFB61A754640EADC0005
:1009000055EA060E18D04FEA051545EA16754FEA66
:1009100006164FEAC30343EA52734FEAC2025FEA84
:100920001C1CC0D111F4801F0BD141EA00014FF013
:1009300000004FF0004CB6E711F4801F04BF0143E4
:100940000020B4F1FD0C88BFBCF5E06F3FF6AFAE00
:10095000B5EB030C04BFB6EB020C5FEA500C50F190
:10096000000041EB045170BD0EF0004E4EEA113113
:1009700014EB5C04C2BFD4EB0C0541EA045170BD1A
:1009800041F480114FF0000E013C90E645EA060E5E
:100990008DE60CEA135594EA0C0F08BF95EA0C0F8C
:1009A0003FF43BAF94EA0C0F0AD150EA01347FF4D4
:1009B00034AF95EA0C0F7FF425AF104619462CE7AB
:1009C00095EA0C0F06D152EA03353FF4FDAE10460E
:1009D000194622E750EA410618BF52EA43067FF45F
:1009E000C5AE50EA41047FF40DAF52EA43057FF4EF
:1009F000EBAE12E700000000000000000000000065
:100A00004FF0FF3C06E000BF4FF0010C02E000BFDA
:100A10004FF0010C4DF804CD4FEA410C7FEA6C5CBD
:100A20004FEA430C18BF7FEA6C5C1BD001B050EA60
:100A3000410C0CBF52EA430C91EA030F02BF90EA4B
:100A4000020F0020704710F1000F91EA030F58BF0A
:100A5000994208BF90422CBFD8176FEAE37040F06C
:100A6000010070474FEA410C7FEA6C5C02D150EA0A
:100A7000013C07D14FEA430C7FEA6C5CD6D152EAC5
:100A8000033CD3D05DF8040B704700BF844610468A
:100A900062468C461946634600E000BF01B5FFF789
:100AA000B7FF002848BF10F1000F01BD4DF808ED59
:100AB000FFF7F4FF0CBF012000205DF808FB00BF2A
:100AC0004DF808EDFFF7EAFF34BF012000205DF884
:100AD00008FB00BF4DF808EDFFF7E0FF94BF0120D1
:100AE00000205DF808FB00BF4DF808EDFFF7CEFFD2
:100AF00094BF012000205DF808FB00BF4DF808ED11
:100B0000FFF7C4FF34BF012000205DF808FB00BFE1
:100B10004FEA410212F5001215D211D56FF4787325
:100B2000B3EB625212D94FEAC12343F0004343EAC8
:100B3000505311F0004F23FA02F018BF40427047A3
:100B40004FF00000704750EA013005D111F000402D
:100B500008BF6FF0004070474FF00000704700BFC3
:100B60004FEA4102B2F1E04324BFB3F5001CDCF1CF
:100B7000FE5C0DD901F0004C4FEAC0024CEA507007
:100B8000B2F1004F40EB830008BF20F00100704736
:100B900011F0804F21D113F13872BCBF01F0004039
:100BA000704741F480114FEA5252C2F11802C2F16B
:100BB000200C10FA0CF320FA02F018BF40F00100EC
:100BC0004FEAC1234FEAD32303FA0CFC40EA0C009E
:100BD00023FA02F34FEA4303CCE77FEA625307D1DB
:100BE00050EA01331EBF4FF0FE4040F44000704712
:100BF00001F0004040F0FE4040F40000704700BFAC
:100C000080F0004002E000BF81F0004142001FBFC1
:100C10005FEA410392EA030F7FEA226C7FEA236CCA
:100C20006AD04FEA1262D2EB1363C1BFD2184140BF
:100C300048404140B8BF5B42192B88BF704710F055
:100C4000004F40F4000020F07F4018BF404211F0F8
:100C5000004F41F4000121F07F4118BF494292EA60
:100C6000030F3FD0A2F1010241FA03FC10EB0C008C
:100C7000C3F1200301FA03F100F0004302D5494219
:100C800060EB4000B0F5000F13D3B0F1807F06D3C6
:100C900040084FEA310102F10102FE2A51D2B1F1BE
:100CA000004F40EBC25008BF20F0010040EA0300B3
:100CB0007047490040EB000010F4000FA2F1010260
:100CC000EDD1B0FA80FCACF1080CB2EB0C0200FAEA
:100CD0000CF0AABF00EBC25052421843BCBFD04038
:100CE0001843704792F0000F81F4000106BF80F4B2
:100CF00000000132013BB5E74FEA41037FEA226C75
:100D000018BF7FEA236C21D092EA030F04D092F03F
:100D1000000F08BF0846704790EA010F1CBF002073
:100D2000704712F07F4F04D1400028BF40F00040D0
:100D3000704712F100723CBF00F50000704700F0F0
:100D4000004343F0FE4040F4000070477FEA226217
:100D500016BF08467FEA23630146420206BF5FEAE8
:100D6000412390EA010F40F4800070474FF00003E8
:100D700004E000BF10F0004348BF40425FEA000CAF
:100D800008BF704743F0964301464FF000001CE057
:100D900050EA010208BF70474FF000030AE000BFAD
:100DA00050EA010208BF704711F0004302D54042EB
:100DB00061EB41015FEA010C02BF8446014600205D
:100DC00043F0B64308BFA3F18053A3F50003BCFA78
:100DD0008CF2083AA3EBC25310DB01FA02FC634425
:100DE00000FA02FCC2F12002BCF1004F20FA02F22C
:100DF00043EB020008BF20F00100704702F120021F
:100E000001FA02FCC2F1200250EA4C0021FA02F27F
:100E100043EB020008BF20EADC70704700000000CE
:100E20004FF0FF0C1CEAD0521EBF1CEAD15392EACD
:100E30000C0F93EA0C0F6FD01A4480EA010C4002A9
:100E400018BF5FEA41211ED04FF0006343EA501003
:100E500043EA5111A0FB01310CF00040B1F5000F45
:100E60003EBF490041EAD3715B0040EA010062F1F4
:100E70007F02FD2A1DD8B3F1004F40EBC25008BFDE
:100E800020F00100704790F0000F0CF0004C08BFFC
:100E900049024CEA502040EA51207F3AC2BFD2F1C9
:100EA000FF0340EAC250704740F400004FF00003D7
:100EB000013A5DDC12F1190FDCBF00F00040704711
:100EC000C2F10002410021FA02F1C2F1200200FA4F
:100ED00002FC5FEA310040F1000053EA4C0308BF16
:100EE00020EADC70704792F0000F00F0004C02BF67
:100EF000400010F4000F013AF9D040EA0C0093F0E2
:100F0000000F01F0004C02BF490011F4000F013B3B
:100F1000F9D041EA0C018FE70CEAD15392EA0C0FA9
:100F200018BF93EA0C0F0AD030F0004C18BF31F014
:100F3000004CD8D180EA010000F00040704790F0EA
:100F4000000F17BF90F0004F084691F0000F91F08E
:100F5000004F14D092EA0C0F01D142020FD193EA54
:100F60000C0F03D14B0218BF084608D180EA0100DC
:100F700000F0004040F0FE4040F40000704740F0B8
:100F8000FE4040F4400070474FF0FF0C1CEAD05286
:100F90001EBF1CEAD15392EA0C0F93EA0C0F69D0E2
:100FA000A2EB030280EA010C49024FEA402037D04D
:100FB0004FF0805343EA111143EA10130CF0004044
:100FC0008B4238BF5B0042F17D024FF4000C8B4234
:100FD00024BF5B1A40EA0C00B3EB510F24BFA3EB14
:100FE000510340EA5C00B3EB910F24BFA3EB9103E4
:100FF00040EA9C00B3EBD10F24BFA3EBD10340EA3E
:10100000DC001B0118BF5FEA1C1CE0D1FD2A3FF683
:1010100050AF8B4240EBC25008BF20F00100704738
:101020000CF0004C4CEA50207F32C2BFD2F1FF03DB
:1010300040EAC250704740F400004FF00003013A0C
:1010400037E792F0000F00F0004C02BF400010F4B0
:10105000000F013AF9D040EA0C0093F0000F01F0C4
:10106000004C02BF490011F4000F013BF9D041EAE6
:101070000C0195E70CEAD15392EA0C0F08D1420219
:101080007FF47DAF93EA0C0F7FF470AF084676E7EC
:1010900093EA0C0F04D14B023FF44CAF08466EE7C5
:1010A00030F0004C18BF31F0004CCAD130F0004293
:1010B0007FF45CAF31F000437FF43CAF5FE700BFEB
:1010C0004FF0FF3C06E000BF4FF0010C02E000BF14
:1010D0004FF0010C4DF804CD4FEA40024FEA4103B6
:1010E0007FEA226C18BF7FEA236C11D001B052EA6C
:1010F000530C18BF90EA010F58BFB2EB030088BF32
:10110000C81738BF6FEAE17018BF40F001007047A0
:101110007FEA226C02D15FEA402C05D17FEA236C82
:10112000E4D15FEA412CE1D05DF8040B704700BFC9
:10113000844608466146FFE70FB5FFF7C9FF002860
:1011400048BF10F1000F0FBD4DF808EDFFF7F4FF99
:101150000CBF012000205DF808FB00BF4DF808ED32
:10116000FFF7EAFF34BF012000205DF808FB00BF55
:101170004DF808EDFFF7E0FF94BF012000205DF877
:1011800008FB00BF4DF808EDFFF7D2FF94BF012028
:1011900000205DF808FB00BF4DF808EDFFF7C8FF21
:1011A00034BF012000205DF808FB00BF00000000F4
:1011B0004FEA4002B2F1FE4F0FD34FF09E03B3EB64
:1011C00012620DD94FEA002343F0004310F0004FA4
:1011D00023FA02F018BF404270474FF000007047FA
:1011E00012F1610F01D1420205D110F0004008BF99
:1011F0006FF0004070474FF00000704700000000A3
:1012000042000ED2B2F1FE4F0BD34FF09E03B3EB70
:10121000126209D44FEA002343F0004323FA02F09C
:1012200070474FF00000704712F1610F01D1420288
:1012300002D14FF0FF3070474FF00000704700BF01
:10124000844641EA000313F0030349D1403A23D313
:101250000B6803604B6843608B688360CB68C36036
:101260000B6903614B6943618B698361CB69C3611E
:101270000B6A03624B6A43628B6A8362CB6AC36206
:101280000B6B03634B6B43638B6B8363CB6BC363EE
:1012900040304031403ADBD230320BD30B68036030
:1012A0004B6843608B688360CB68C360103010313B
:1012B000103AF3D20C3205D351F8043B40F8043B0A
:1012C000043AF9D2043208D0D2071CBF11F8013B0E
:1012D00000F8013B01D30B8803806046704700BFD4
:1012E000082A13D38B07B1D010F00303AED0C3F19B
:1012F0000403D21ADB071CBF11F8013B00F8013BC5
:10130000A4D331F8023B20F8023B9FE7043AD9D33B
:10131000013A11F8013B00F8013BF9D20B78037058
:101320004B7843708B7883706046704700000000F4
:1013300080EA010C1CF0030F37D110F0030C20F0F1
:10134000030021F0030150F8042B08BF51F8043BBF
:101350000ED08CF0030C6FF07F434FEACC0C23FAD5
:101360000CFC51F8043B42EA0C0243EA0C0300BFB8
:10137000A2F1013C9A4201BF2CEA020C1CF0803F12
:1013800050F8042B51F8043BF2D04FEA02604FEAC8
:101390001222012828BFB0EB036F08BF1B0AF4D04C
:1013A00003F0FF03000EC01A704710F0030F0AD0BD
:1013B00010F8012B11F8013B012A28BF9A42F4D002
:1013C000A2EB030070474DF8045D50F8042B01F0C8
:1013D000030521F0030151F8043B022D26D04DD81E
:1013E00022F07F45B5EB132FA2F1013C2CEA020C51
:1013F0000DD11CF0803C08BF51F8043B0AD185EAAE
:101400000205B5EB036F0CD150F8042BE8E74FEA67
:1014100013235BE03CF07F4C54D10B784FEA12650C
:1014200054E04FEA126503F0FF034FE04FEA024534
:10143000A2F1013C4FEA15452CEA020CB5EB134F23
:1014400018D11CF0803C08BF51F8043B07D185EA55
:101450000205B5EB034F09D150F8042BE6E75FEA2C
:101460000C4C2FD10B884FEA12452FE04FEA034373
:101470004FEA12454FEA134328E000BF02F0FF0590
:10148000B5EB136FA2F1013C2CEA020C0DD11CF05C
:10149000803C08BF51F8043B0AD185EA0205B5EB50
:1014A000032F0AD150F8042BE8E74FEA13630DE04D
:1014B00012F0FF0F06D051F8043B4FEA122523F03B
:1014C0007F4303E04FF0000020BC704705F0FF02AF
:1014D00003F0FF00012828BF904204BF2D0A1B0A19
:1014E000F4D0A2EB000020BC704700BF0000000059
:1014F000704700BF00000000000000000000000076
:10150000704700BF00000000000000000000000065
:10151000FEE700BF00000000000000000000000027
:10152000F0B4114E002506F1800796E81A00A34298
:101530000DD21A46043951F8040F42F8040BA242A6
:10154000F9D3DA43144424F0030404342344F26846
:10155000934203D243F8045B9342FBD31036BE425E
:10156000E3D3F0BC704700BFE0D4000800000000E7
:10157000FEE700BF000000000000000000000000C7
:10158000FEE700BF000000000000000000000000B7
:101590004FF6FF011B4B70B500259D60D8681A4AB5
:1015A00001400A431948DA60C268194942F0807262
:1015B000C2600A68202042F00102164C10260A6020
:1015C00082B0DE7783F8220000F03AF900F0B8F834
:1015D00000F0EEFB01F0E4FB01F02AFC2046402184
:1015E00000F026FA012244F8140C027485F31188E5
:1015F00062B6D021009504F13C00074B00F058FA88
:1016000002B070BD00ED00E00003FA05F0ED00E06F
:10161000001000E084110020811500080000000087
:1016200072B6014B1862FEE7601100200000000056
:10163000C30710B410D51D4C2268A2422BD0002342
:1016400012680133A242FBD1516891421FD0496810
:10165000013BA142FBD1D3B910F0020014D0134CCE
:10166000214651F8143F8B421BD000201B680130EB
:101670008B42FBD1A2699A4209D0526801388A4252
:10168000FBD1003018BF01205DF8044B70470120EA
:101690005DF8044B70476168A14218BF0023D6D1A2
:1016A000DAE7A26900209A42E7D1EDE76011002055
:1016B000F8B5104D2E46EA8B56F8143F013292B21F
:1016C000B342EA8314D01C89013CA4B21C817CB9CA
:1016D00020271A68D968DC6056606A6184F3118833
:1016E0001869884787F311886B691A89002AF0D036
:1016F000F8BD00BF601100200000000000000000E5
:10170000EFF3118020B9EFF30583202383F31188D1
:10171000704700BF00000000000000000000000053
:1017200068B910B5EFF30584C4F3080414B180F36D
:10173000118810BD00F064F984F3118810BD704762
:101740004FF6FF70044B002103F114029883D983F4
:101750005A619A61704700BF6011002000000000CC
:1017600030B40D4C03616369C2601A89914205D996
:101770001B68891A1A8989B28A42F9D34FF6FF7514
:101780005A68036042601060586001811A89511ADA
:101790001981A58330BC7047601100200000000053
:1017A00030B44FF6FF74036805891A8941682A44EA
:1017B0001A810B600568034B00226960C2609C833C
:1017C00030BC7047601100200000000000000000E5
:1017D00010B4202383F31188037C072B0ED8DFE895
:1017E00003F0270D0D2308040D08426993680133A7
:1017F000936090E80C001A60026853604FF0FF3469
:10180000002281680D4B446102741B689A688A4209
:10181000FBD25A680021036042601060586081F377
:1018200011885DF8044B7047436900221A60E5E7B0
:10183000002383F311885DF8044B7047601100208A
:10184000024B00221B605B609A60704760110020B1
:1018500010B4044600228168074B02741B689A6822
:101860008A42FBD25A6820462360626014605C6042
:101870005DF8044B704700BF6011002000000000BD
:10188000074B30B41A68196914680125087463603D
:101890001A6115741C60104630BCFEF7C9BC00BF4D
:1018A00060110020000000000000000000000000A7
:1018B0004FF6FF7330B5994287B012D005460C4CF5
:1018C00001A823690B4AFFF74BFF2846FFF7D8FF13
:1018D000049B13B101A8FFF763FF2369586907B0A0
:1018E00030BDFFF7CDFF024C2369586907B030BD0A
:1018F00060110020D1170008000000000000000067
:10190000144B70B41E69846805464161B068844216
:101910000CD800222A741B689A689442FBD95A6832
:101920002B606A6015605D6070BC70471A460021CC
:101930003174126891688842FBD950680124706044
:101940003260066056601D612C743146284670BCBA
:10195000FEF76EBC601100200000000000000000D7
:10196000044B1A681B6990689B68984294BF0020DA
:1019700001207047601100200000000000000000FE
:101980000D4AF0B410681469056801270026A168A3
:101990002B466A60156010610774267400E01B68AE
:1019A0009A688A42FBD25A682146236062601460BA
:1019B0005C60F0BCFEF73CBC601100200000000041
:1019C0000D4AF0B410681469056801270026A16863
:1019D0002B466A60156010610774267400E01B686E
:1019E0009A688A42FBD85A68214623606260146074
:1019F0005C60F0BCFEF71CBC601100200000000021
:101A0000044B1A681B6992689B689A4200D8704719
:101A1000FFF7D6BF601100200000000000000000AA
:101A2000FFF7CEBF00000000000000000000000033
:101A3000F0B400F11C0400220227012600F1180571
:101A4000077486748561C4610462816001634274B5
:101A5000C2628262F0BC704700000000000000001B
:101A60002DE9F04324394618C660DFF83C90435016
:101A7000079B002500F11C074FF002084FF0010CF6
:101A800000F1180E7360C6F820908260026380F83F
:101A9000108080F812C0C0F818E0C7610762457472
:101AA000C5628562BDE8F0834102000800000000C5
:101AB0002DE9F0479A460446202383F31188DFF886
:101AC00050902439089F4618002500F11C034FF060
:101AD000010C00F1180E4FF00208C66040F801A09A
:101AE0007760C6F8209029468260026380F81080F3
:101AF00080F812C0C0F818E04574C5628562C36101
:101B00000362FFF7FDFE85F311882046BDE8F087EC
:101B1000410200080000000000000000000000007A
:101B200008B5202383F31188FFF792FE002383F387
:101B3000118808BD00000000000000000000000047
:101B400010B5202383F31188084B1B691C6B99681F
:101B50008C4201D0814200D298601863FFF750FF99
:101B6000002383F31188204610BD00BF60110020C0
:101B7000202383F31188437C002243F00403437441
:101B800082F31188704700BF0000000000000000D1
:101B900008B50146202383F311880820FFF788FE4B
:101BA000002383F3118808BD00000000000000003E
:101BB00008B5202383F31188054BD98B411A89B2CC
:101BC00011B10820FFF774FE002383F3118808BDCC
:101BD0006011002000000000000000000000000074
:101BE00008B5202383F31188064B1A681B69926895
:101BF0009B689A4201D3FFF7C3FE002383F3118849
:101C000008BD00BF601100200000000000000000BF
:101C100038B50A4B1C69A36904F118059D4260613F
:101C200007D01A681846A261FFF712FEA369AB42FB
:101C3000F7D10F20BDE83840FFF722BE6011002029
:101C4000202383F31188FFF7E3BF00BF00000000EB
:101C500038B50446202383F31188037C0F2B07D06B
:101C6000084B82691B6909201A60A361FFF708FE0F
:101C70006569002383F31188204600F0B9F82846EF
:101C800038BD00BF6011002000000000000000000F
:101C9000054B02461B6921B1036003205A61FFF71F
:101CA00007BE4FF0FF3070476011002000000000B9
:101CB00003682BB10022026018465961FFF7C8BDC6
:101CC000704700BF0000000000000000000000009E
:101CD00069B10246074B10B41B694468042083E8CD
:101CE0001400236053605DF8044BFFF7E1BD4FF033
:101CF000FF3070476011002000000000000000006D
:101D000002680346904209D010B4146810461C6063
:101D1000636051615DF8044BFFF79ABD704700BFE7
:101D200038B50368044698420D4609D01A6818462B
:101D3000226054605D61FFF78BFD23689C42F5D102
:101D400038BD00BF000000000000000000000000DF
:101D5000014B5B6883607047001000E000000000EA
:101D60000E4B0F495A688368C96DD31AC26830B4E4
:101D7000D0E904455B1A01324168E418C260026888
:101D800045F100058B4288BF43609342C0E904459A
:101D900030BC836038BF0360704700BF001000E0B4
:101DA00060110020000000000000000000000000A2
:101DB000D0B50C4C86B000234FF0FF3268460026A9
:101DC0000027E3650193029303930092CDE9046732
:101DD000FFF7BEFF6846FFF7C3FF029BE36506B04F
:101DE000D0BD00BF60110020000000000000000016
:101DF0000146202383F31188837C013BDBB283748B
:101E000013B9027C0F2A03D0002383F31188704793
:101E1000427C02F00302012A06D0022AF4D183F3A5
:101E20001188406B01F014B983F3118801F068B890
:101E3000F0B583B016461D460F4601F019F898B16B
:101E4000202383F31188089B3946009332462B46A2
:101E5000FFF706FE0123437400210446FFF750FDFF
:101E6000002383F31188204603B0F0BD000000007A
:101E70002DE9F04182B00F4616469846054601F01E
:101E8000CFF8A0B1202383F3118869683A4633461E
:101E9000CDF80080FFF7E4FD022343744563002181
:101EA0000446FFF72DFD002383F31188204602B07E
:101EB000BDE8F0810000000000000000000000000C
:101EC000006040608160704700000000000000007A
:101ED00070B5856881600135002D0CDC04466FF01B
:101EE000010660680135436863601C60FFF7B0FC61
:101EF000012D4661F5D170BD00000000000000001A
:101F000008B5202383F31188FFF7E2FFFFF778FD80
:101F1000002383F3118808BD0000000000000000CA
:101F2000202383F311888368013B002B836004DB4B
:101F30000020002383F311887047034610B5084C36
:101F40000520226953615968136051600A605A6024
:101F5000FFF796FC23695869002383F3118810BDAD
:101F600060110020000000000000000000000000E0
:101F700003468068421E002A9A6001DB00207047F9
:101F800010B461B1094A0520126953615C6882E8A6
:101F9000180022605A605DF8044BFFF789BC986016
:101FA0005DF8044B4FF0FF30704700BF6011002018
:101FB00008B5202383F31188FFF7DAFF002383F3AA
:101FC000118808BD000000000000000000000000B3
:101FD00008B5202383F3118883680133002B8360C5
:101FE00003DD002383F3118808BD03460068002148
:101FF00002681A605360FFF783FC002383F31188A3
:1020000008BD00BF0000000000000000000000004C
:10201000836802460133002B836000DD704703684C
:1020200010B41968002411604A605C6118465DF8BC
:10203000044BFFF70DBC00BF0000000000000000D3
:1020400070B50C1E12DD0546002601E0013C0DD0E6
:10205000AB680133002BAB60F8DC286803682B60A9
:102060005D60FFF7F5FB013C4661F1D170BD00BF3B
:1020700010B5024682B0202383F3118883680133B0
:10208000002B83601DDD8B68013B002B8B6007DB21
:10209000FFF7B6FC0020002383F3118802B010BDC7
:1020A0000D4A4B681469052084E80A001C604C60E6
:1020B0006161FFF7E5FB6069002383F3118802B0DB
:1020C00010BD00680191036813605A60FFF7C0FB00
:1020D000002343610199D6E7601100200000000051
:1020E0000023006040608360704700BF0000000074
:1020F000F8B582682F4B1C69002A55D0A1689368F7
:102100000546994206D9137C9160062B33D0072BE4
:102110001DD09BB12B4603E09968A268914202D37F
:102120001B689D42F8D15A682360626014605C604D
:1021300065610620BDE8F840FFF7A2BB92E80A00FF
:102140001960104612685360FFF782FBE2E71768D8
:1021500050685669076017683346786002E09868EF
:10216000884202D31B689E42F9D1596813605160BE
:102170000A605A60CEE717685068566907601768AA
:102180003346786002E09868884202D31B689E421A
:10219000F9D15968136051600A605A60B268A16849
:1021A00093688B42AFD3B5E7E36A8460C360E062B3
:1021B000F8BD00BF6011002000000000000000001A
:1021C00008B5202383F31188FFF792FF002383F3E0
:1021D000118808BD000000000000000000000000A1
:1021E0000346202282F31188826800201AB100235E
:1021F00083F311887047054A01201269D16A9A60F9
:10220000D960D362002383F31188704760110020E6
:10221000174B70B51D69202383F311880468C368C8
:10222000A042EB621DD0296B4BB11A68934203D0D8
:102230009268914238BF1146DB68002BF5D1034606
:102240002268E66A2046A9601A6053609C60DE60DE
:10225000E362FFF7FDFAFFF7D3FB002383F3118856
:1022600070BD00238360002383F3118870BD00BF1D
:1022700060110020000000000000000000000000CD
:1022800030B40446114A2568C3681069AC42C36281
:1022900017D0016B4BB11A68934203D092689142F8
:1022A00038BF1146DB68002BF5D1EA6A2B688160E4
:1022B000236028465C60A560E260EC6230BCFFF7FA
:1022C000C7BA0023A36030BC704700BF6011002074
:1022D000134A70B52023146983F31188E36AD3B1DC
:1022E00000260BE0D56A1168104619604B609A60B1
:1022F000DD60D362FFF7ACFAE36A43B11A68D968CC
:102300009342E162EED19E60E36A002BF6D1236B2B
:10231000A360FFF775FB002383F3118870BD00BF36
:10232000601100200000000000000000000000001C
:1023300000604060704700BF000000000000000027
:10234000202383F31188026882420CD0034610B523
:10235000146810461C6000216360FFF7D1FA002367
:1023600083F3118810BD002383F31188704700BFE9
:102370000268034690420AD0116810B4002401603C
:102380004B60546110465DF8044BFFF761BA70472B
:1023900038B50446006884420AD06FF0010503682E
:1023A00023605C60FFF754FA45612068A042F6D1D3
:1023B00038BD00BF00000000000000000000000069
:1023C00008B5202383F31188FFF7E2FFFFF718FB1E
:1023D000002383F3118808BD000000000000000006
:1023E00070B505460E4B1C69E66A3046FFF748FF9C
:1023F0002B46656103E09968A268914202D31B688D
:102400009D42F8D15A6807202360626014605C60C6
:10241000FFF736FA64693046FFF76AFE204670BD62
:10242000601100200000000000000000000000001B
:1024300008B5202383F31188FFF7D2FF002383F32D
:10244000118808BD0000000000000000000000002E
:10245000F8B50546114C0F462369DE6A3046FFF792
:102460000FFF24692B46656103E09868A2689042DB
:1024700002D31B689D42F8D15A68394623606260D6
:10248000072014605C60FFF713FA431C044602D077
:102490003046FFF72DFE2046F8BD00BF601100203A
:1024A00008B5202383F31188FFF7D2FF002383F3BD
:1024B000118808BD000000000000000000000000BE
:1024C00070B4202484F31188064C06682569002422
:1024D0000E6001604D608A600B61CC6084F31188EE
:1024E00070BC704760110020000000000000000078
:1024F000202383F31188024602E08B4207D01A465C
:1025000013688342F9D1002383F3118870470B6865
:102510001360002383F31188704700BF00000000A0
:1025200010B4202383F31188064B00211A69936AA3
:1025300023EA0004946281F3118818405DF8044B8B
:10254000704700BF60110020000000000000000084
:10255000202383F31188044B00211A69936A1843DE
:10256000906281F311887047601100200000000024
:10257000836A027C19430A2A81620AD00B2A00D09E
:102580007047436919408B42FAD100234361FFF73A
:102590005FB943691942F8D1704700BF00000000DD
:1025A00070B504680646A0420D460DD0E3682B4383
:1025B000E36015B12269134203D06068A168FFF798
:1025C000D7FF2468A642F1D170BD00BF0000000013
:1025D00008B5202383F31188FFF7CAFFFFF710FA2D
:1025E000002383F3118808BD0000000000000000F4
:1025F00008B5202383F31188FFF7D2FFFFF700FA15
:10260000002383F3118808BD0000000000000000D3
:10261000F8B50D46B9B106460024012725FA04F3A2
:10262000DB0704D4013425FA04F3DB07FAD507FAF3
:1026300004F3204625EA030556F824309847013470
:10264000002DEBD1F8BDF8BD000000000000000037
:1026500038B50D4B1D69202383F31188AB6A10EA4E
:10266000030207D1044668610A20FFF709F9AB6A43
:1026700004EA03025042104023EA0003AB62002345
:1026800083F3118838BD00BF6011002000000000F6
:1026900038B50C4B1D69202383F31188AB6A10EA0F
:1026A000030406D1044668610A20FFF7E9F8AB6A23
:1026B0001C4023EA0403AB62002383F31188204605
:1026C00038BD00BF601100200000000000000000C5
:1026D00038B50C4B04461D69202383F31188AB6A7F
:1026E00000EA0302824204D068610B20FFF7C8F8B9
:1026F000AB6A23EA0403AB62002383F3118820460C
:1027000038BD00BF60110020000000000000000084
:10271000124B70B520221D6982F31188AA6A10EA53
:1027200002060ED119B981F31188084670BD68619F
:1027300004460A20FFF7BCF800280BDBAA6A04EA6B
:1027400002067042304022EA0002AA62002383F3AC
:10275000118870BD86F31188304670BD601100206D
:10276000124B70B51E69202383F31188B36A10EAF7
:1027700003040ED119B981F31188084670BD706148
:1027800005460A20FFF794F800280ADBB36A05EA39
:10279000030423EA0403B362002383F31188204671
:1027A00070BD84F31188204670BD00BF6011002009
:1027B00038B5104B04461D69202383F31188AB6A9A
:1027C00000EA030282420BD0084611B980F3118857
:1027D00038BD6C610B20FFF76BF8002808DBAB6A93
:1027E00023EA0403AB62002383F31188204638BD3B
:1027F0000020EBE760110020000000000000000056
:102800000E4B70B520221C6982F3118800F11C0563
:10281000067C6561026A0E2E61622560626014604A
:10282000046207D00C20FFF72BF86069002383F3C4
:10283000118870BDFFF70CF8F4E700BF60110020AD
:1028400010B5202383F311880B4C2269134653F8EB
:102850001C0F984208D001680D24D1614B60002202
:10286000047482F3118810BD0E20FFF709F8226965
:10287000D06902F11C03EEE76011002000000000A7
:1028800008B5202383F31188FFF73AF8002383F378
:10289000118808BD000000000000000000000000DA
:1028A0000B4610B5044601EB820141600360C36032
:1028B000836011461C30FFF703FB04F11000002178
:1028C000BDE81040FFF7FCBA000000000000000067
:1028D00010B50446036841688360C91AC360891053
:1028E0001C30FFF7F5FA04F110000021BDE810409C
:1028F000FFF7EEBA0000000000000000000000003A
:1029000008B5202383F31188FFF7E2FFFFF778F87B
:10291000002383F3118808BD0000000000000000C0
:1029200070B504460E461C301146FFF721FB0546E4
:1029300078B9A2686168131D8B42A36028BF236821
:10294000166004F1100028BFA360FFF761FBFFF7DA
:1029500057F8284670BD00BF0000000000000000CE
:1029600008B5202383F31188FFF7DAFF002383F3F0
:10297000118808BD000000000000000000000000F9
:1029800038B5436A002B12DD84684568221D013B7F
:10299000AA42436228BF03688260216000F11000F0
:1029A00028BF40F8083CFFF733FB002038BD4FF04C
:1029B000FF3038BD000000000000000000000000F3
:1029C00070B504460E461C301146FFF7D1FA054695
:1029D00060B9E3682268043B9342E36008D31E6059
:1029E00004F11000FFF714FBFFF70AF8284670BD4A
:1029F0006368043BE360F2E70000000000000000B1
:102A000008B5202383F31188FFF7DAFF002383F34F
:102A1000118808BD00000000000000000000000058
:102A2000426A002A11DDC36810B50468043B013A0C
:102A3000A3424262C36002D24368043BC360196090
:102A40001030FFF7E5FA002010BD4FF0FF3070475F
:102A500070B504460E4610301146FFF789FA054658
:102A600080B9E3686268196804339342E36028BF61
:102A70002368316004F11C0028BFE360FFF7C8FA47
:102A8000FEF7BEFF284670BD0000000000000000F9
:102A900008B5202383F31188FFF7DAFF002383F3BF
:102AA000118808BD000000000000000000000000C8
:102AB0008369002B14DD5A1EC36810B58261426819
:102AC0001C6804339342C36028BF03680C6000F1A4
:102AD0001C0028BF40F8103CFFF79AFA002010BDF8
:102AE0004FF0FF30704700BF000000000000000002
:102AF00030B4029C00250A448560046202610060D3
:102B00004060C16081614161C36130BC704700BFFA
:102B1000C26800218160826142616FF00101FFF7AC
:102B2000FFB800BF0000000000000000000000002F
:102B30004369826910B5934210D082685C1C0132EF
:102B4000826044611970426903699A4201D3C36883
:102B500043610021FFF7D4F8002010BD8268002AED
:102B6000EBD06FF0030010BD00000000000000007B
:102B700070B520230E46044683F31188C3693BB128
:102B8000984705E020463146FFF7A2F8002813DBFE
:102B9000A568002DF6D0A169A36825694A1C013BF0
:102BA000AA42A36028BFE368A261087828BFA36196
:102BB000002383F3118870BD85F3118870BD00BFB9
:102BC0002DE9F04F044683B0894693461D46D0F860
:102BD0001C80202787F311880026B2460197B8F1A0
:102BE000000F07D02046C04704E020462946FFF7E3
:102BF0006FF8D0B9A768002FF7D0A269A368511C5D
:102C0000013BA161A360137809F8013B2369A26924
:102C10009A4224BFE368A3618AF311880136B34561
:102C200005D0019B83F31188D9E787F311883046DB
:102C300003B0BDE8F08F00BF0000000000000000FE
:102C400030B4029C8D1805610462006040608260AF
:102C5000C16081614161C36130BC70470000000008
:102C6000C16802698161521A416182606FF001019D
:102C7000FFF756B800000000000000000000000050
:102C8000F8B504460F461646202383F3118805E065
:102C900020463146FFF71CF8002817DBA568002DF9
:102CA000F6D06269A368511C013B6161A360177093
:102CB000236962699A4224BFE3686361E3690BB1E7
:102CC00020469847002080F31188F8BD85F31188CD
:102CD000F8BD00BF00000000000000000000000080
:102CE00038B5426983699A420FD082680569591CD8
:102CF000013282608161A9421C7801D3C36883617B
:102D00000021FEF7FDFF204638BD8268002AECD086
:102D10006FF0020038BD00BF00000000000000009E
:102D20002DE9F04F83B004468B4615460193C769E1
:102D30004FF0200888F311880026B146A3680BF1F4
:102D4000010AFBB16269A368501C013B6061A3608A
:102D50009BF800301370236962699A4224BFE368CC
:102D600063610FB12046B84789F31188013D06F130
:102D7000010611D088F31188D346A3680BF1010A2C
:102D8000002BDFD1204601990093FEF7A1FF009BA5
:102D90000028D3D083F31188304603B0BDE8F08F0C
:102DA000054A064B0648074922F0070223F00703AD
:102DB00002600B60704700BFD730002000C00020C9
:102DC000941200209012002000000000000000007B
:102DD00010B4202383F31188094C0A4B2268196828
:102DE000C31D23F00703891A8B429DBF9B182360E4
:102DF00010460020002383F311885DF8044B7047D0
:102E0000941200209012002000000000000000003A
:102E1000024A034B10681B68C01A704790120020CA
:102E200094120020000000000000000000000000DC
:102E3000044B0549002203F1100019609A60DA6022
:102E4000FFF74EB998120020D12D000800000000B5
:102E50000023083A81600360C36010304A600B6051
:102E6000FFF73EB900000000000000000000000075
:102E7000F8B5214E0731002818BF064606F11007A5
:102E8000384621F0070506F10804FFF799F903E039
:102E900043689D4212D9044620680028F8D138467C
:102EA000FFF7B6F9336823B305F10800984700B37C
:102EB0000660456000F108042046F8BD05F10801F0
:102EC000994209D9036823600446384644F8086BE0
:102ED000FFF79EF92046F8BD6FF0070EC5EB0E0E0A
:102EE0009E44036842184350C2F804E022604560E3
:102EF000EAE70024E0E700BF98120020000000008D
:102F0000F8B550F8085C064605F11007A0F1080472
:102F100008353846FFF754F92B46AB4204D0A3429C
:102F200002D31B68AB42FAD11A681AB1944201D39A
:102F30001346F2E756F8041C46F8082C1C6001F111
:102F4000080256F8085CA018A8420AD0596801F196
:102F500008021A44944210D03846BDE8F840FFF702
:102F600057B94568A0584A19083206E9050059685A
:102F700001F108021A449442EED116E905000A4410
:102F8000083283E805003846BDE8F840FFF740B94D
:102F900070B50F4C0E46002818BF044604F110050A
:102FA0002846FFF70DF9A36873B10022144658684C
:102FB0001B6801340244002BF9D106B13260284667
:102FC000FFF726F9204670BD1A461C46F5E700BFFC
:102FD0009812002000000000000000000000000027
:102FE0000023416082600360704700BF0000000062
:102FF00072B130B42025002485F3118803680B607A
:10300000016084F311884368013A1944F4D130BC5B
:10301000704700BF0000000000000000000000003A
:1030200008B52022034682F31188006828B102689F
:103030001A60002383F3118808BD9A68002AF8D02B
:1030400058689047002383F3118808BD00000000F2
:10305000202383F31188026800230A60016083F350
:103060001188704700000000000000000000000010
:10307000EFF30983203383F30988002383F3118856
:10308000704700BF000000000000000000000000CA
:10309000202383F311880F4B5B6813F4006302D184
:1030A00083F31188704710B5EFF309844FF08073F4
:1030B00044F8043CA4F1200383F30988FEF750FC94
:1030C00018B1054B44F8083C10BD044B44F8083CCB
:1030D00010BD00BF00ED00E05102000854020008DE
:1030E00008B501F045F90A4801F09AFB00F088FAAA
:1030F00000F096FA00F0FCFA00F04AFB00F090FDB8
:1031000000F076FC02F0CCFBBDE8084000F008B807
:1031100030D70008000000000000000000000000A0
:1031200001F036BB000000000000000000000000BD
:10313000F0B4043203FB0217049E059D002447618E
:10314000C66205638460446284620060406001611D
:10315000C1608261C3610162F0BC70470000000081
:10316000016A00220161C1608260426282626FF086
:103170000101FEF7D5BD00BF000000000000000007
:10318000C3680269934201D0181D70478268002A03
:10319000FAD00020704700BF0000000000000000CF
:1031A00030B4C46845692160836982682344AB42B6
:1031B000C36028BF036A02F10102826028BFC360B6
:1031C000002130BCFEF79CBD0000000000000000A4
:1031D00038B504460D4605E020462946FEF778FD41
:1031E000002809DBA368002BF6D0236900201A68A9
:1031F00004331A44A262636238BD00BF00000000BD
:1032000010B483690469416923448B420361826875
:1032100028BF036A02F1FF3228BF0361C36A8260DC
:103220000022426213B15DF8044B18475DF8044B6D
:10323000704700BF00000000000000000000000018
:1032400038B50446202383F31188456A9DB12B4687
:10325000A26A13F8015B9342636204D2002383F3F2
:103260001188284638BD2046FFF7CAFF002383F3A4
:103270001188284638BDFFF7ABFF08B9656AE6E755
:1032800085F3118838BD00BF000000000000000079
:103290002DE9F04F984683B004460E46924620230F
:1032A00083F311883C4B616ADB8B08F1FF374344A1
:1032B0009BB24FF6FD79BFB201930025A1B3A36A7B
:1032C000C5EB0A0B5B1A9B4528BF9B46BBF1400F21
:1032D0003AD9334601F14002D1F800B0D1F804C028
:1032E000D1F808E0C86810319142C3F800B0C3F8C3
:1032F00004C0C3F808E0D86003F11003ECD1636A9E
:10330000A26A40339A4206F1400605F14005636225
:1033100026D9002383F31188554529D2202383F32E
:103320001188616A0029CAD14F4525D81A4B019AE4
:10333000DB8BD31A9BB298452BD319462046FFF757
:1033400047FFF8B9616ABAE730465A46FDF778FF99
:10335000636AA26A5B449A425D445E446362D8D861
:103360002046FFF74DFF002383F311885545D5D341
:10337000284603B0BDE8F08F20464146FFF728FFFE
:103380000028DFD0002383F31188284603B0BDE86E
:10339000F08F81F31188EBE760110020000000003E
:1033A000F0B4043202FB0317049E059D002447611C
:1033B000C6620563446284620060406083600161AC
:1033C000C1608261C3610162F0BC7047000000000F
:1033D000016A10B4C469002284600161C160426264
:1033E00082626FF001015DF8044BFEF799BC00BFEB
:1033F0000369C2689A4204D0184650F8043B0B6037
:1034000070478268002AF7D0002070470000000053
:1034100010B483690469416923448B428268036163
:1034200028BF036A02F10102826028BF0361002104
:103430005DF8044BFEF764BC0000000000000000D3
:1034400038B504460D4605E020462946FEF740FC07
:10345000002809DBA368002BF6D0E268A369111DE0
:1034600013446162A362002038BD00BF0000000069
:1034700030B4C46845692160836982682344AB42E3
:10348000C36028BF036A02F1FF3228BFC360C36A6A
:103490008260002242620BB130BC184730BC7047DA
:1034A00070B520230E46044683F31188456A9DB10A
:1034B0002E70636AA26A01339342636203D20020D2
:1034C00080F3118870BDA16920460439FFF7D0FF51
:1034D000002080F3118870BD1146FFF7B1FF08B9D5
:1034E000656AE5E785F3118870BD00BF0000000044
:1034F0002DE9F04F1F4683B00446202383F3118843
:103500003C4B606ADB8B7E1E3B449BB24FF6FD78E2
:10351000B6B2019300258A46934698B3A26AC5EBDA
:103520000B09121A914528BF9146B9F1400F514637
:1035300037D90AF14003D1F80090D1F804C0D1F88E
:1035400008E0CA6810319942C0F80090C0F804C081
:10355000C0F808E0C26000F11000ECD1626A8A464F
:10356000A16A4032914205F14005626224D90022ED
:1035700082F311885D4529D2202282F31188606A86
:103580000028CBD1464525D81A4BD98B019B591A17
:1035900089B28F422BD32046FFF752FF00BB606AEF
:1035A000BCE74A46FDF74CFE626AA16A4A44914272
:1035B0004D44CA446262DAD8A16920460439FFF753
:1035C00057FF002282F311885D45D5D3284603B00A
:1035D000BDE8F08F20463946FFF732FF0028DED0E5
:1035E000002383F31188284603B0BDE8F08F80F3F1
:1035F0001188EBE7601100200000000000000000CF
:1036000001F0D6B80000000000000000000000003B
:1036100000230122027043608360C360036170472E
:1036200001F0CEBA00000000000000000000000021
:1036300001220023027043600C30FEF751BD00BF31
:1036400010B52023044683F31188416001F0D0FABD
:1036500002232370002383F3118810BD00000000B3
:1036600010B52023044683F3118801F079FB012370
:103670002370002383F3118810BD00BF00000000F9
:10368000806870470000000000000000000000009B
:10369000F0B585B00446BDF83070202585F311885B
:1036A0000A9D4FF0030E00950B9D00260195029791
:1036B000866080F800E001F093FB431C0CBF0523FB
:1036C00002232370002383F3118805B0F0BD00BFEF
:1036D0000C30FEF775BD00BF0000000000000000C8
:1036E0000C30FEF795BD00BF000000000000000098
:1036F00001F0C6BB00000000000000000000000058
:103700000023012202704360C3600374704700BF4E
:103710000C30FFF755BA00BF0000000000000000A9
:103720000C304FF6FF73FFF74BBA00BF00000000EC
:103730003030FFF7F5BA00BF0000000000000000C5
:1037400030304FF6FF73FFF7EBBA00BF0000000008
:103750000C30FFF70DBA00BF0000000000000000B1
:103760000C304FF6FF71FFF703BA00BF00000000F6
:103770003030FFF785BA00BF0000000000000000F5
:1037800030304FF6FF72FFF77BBA00BF0000000039
:1037900001F0BEBC000000000000000000000000BE
:1037A00030B5044615460B460C4983B040F8041B5F
:1037B0000122009404F154016060227204F10C00B3
:1037C0008022FFF795F900942B4604F1300004F1B4
:1037D000D4018022FFF734FA03B030BD60D5000871
:1037E00010B52023044683F3118801F0A9FC0223BD
:1037F0002372002383F3118810BD00BF0000000076
:1038000038B5436904460D463BB1294604F10C0026
:10381000FFF78EF900280BDB38BD04300421FEF7DA
:10382000BFFE294604F10C00FFF782F90028F3DA05
:10383000201D8021BDE83840FEF7B2BE0000000028
:1038400010B5046B82B0D4F8842413681978042965
:1038500001D002B010BD217A0229FAD111791A895A
:1038600001238B401342F4D104F1400001A9FFF77A
:10387000BFFD0028EDD0D4F88434024619791868C9
:10388000019B00F07DFAE4E700000000000000006A
:1038900010B4D0F8844424682478042C03D0002089
:1038A0005DF8044B70470C305DF8044BFFF7F0BC3B
:1038B00010B4D0F8844424682478042C03D0002069
:1038C0005DF8044B704740305DF8044BFFF710BEC5
:1038D000D0F884341B681B78042B02D10C30FFF71E
:1038E000AFBC6FF001007047000000000000000056
:1038F000D0F884341B681B78042B04D10C304FF6AD
:10390000FF71FFF79DBC6FF00100704700000000E1
:10391000D0F884341B681B78042B02D14030FFF7A9
:10392000BFBD6FF001007047000000000000000004
:10393000D0F884341B681B78042B04D140304FF638
:10394000FF72FFF7ADBD6FF001007047000000008F
:10395000D0F8842438B513681978042901D00120DF
:1039600038BD017A0229FAD112795C89012393408A
:103970001C40F4D105460C30FFF702FC0028EED0C5
:10398000D5F884340246597918684FF4807300F0F2
:10399000DFF9204638BD00BF000000000000000035
:1039A000006BFFF7D5BF00BF000000000000000063
:1039B000D0F884341B681B78042B01D0002070479A
:1039C0000C304FF6FF73FFF763BC00BF0000000030
:1039D000D0F884341B681B78042B01D0002070477A
:1039E00040304FF6FF73FFF783BD00BF00000000BB
:1039F000704700BF00000000000000000000000051
:103A0000034610B504461049104A82B043F8041B1F
:103A10000121019043600172022304F174010092BC
:103A20000C304FF48072FFF783FB094B0194009335
:103A300004F1400004F51F714FF480720223FFF778
:103A4000AFFC02B010BD00BF80D50008A13900084E
:103A500041380008000000000000000000000000E5
:103A60000B68202282F311880A7903EB82029062AC
:103A70004A79113243F822008A7912B103EB8203AA
:103A8000986202230372C0F88414002383F3118820
:103A9000704700BF000000000000000000000000B0
:103AA00010B504460C30FFF75BFB04F14000FFF754
:103AB0008FFC201D0121FEF773FD2046BDE810405C
:103AC000FFF746BF000000000000000000000000FB
:103AD00090F8743003F06003202B01D00020704771
:103AE00090F87530212B03D0222B09D0202BF5D153
:103AF0000649072200238166C266036701207047DA
:103B000000238366C3660367012070470008002016
:103B1000F0B500EB81039C6A83B0ECB10E4605461C
:103B2000202383F311880821201D05EB8607FEF76B
:103B300037FDFB6840345B691B68FBB9204601A96F
:103B4000FFF756FC024648B128463146019B00F07B
:103B500017F9002383F3118803B0F0BDFB685A699D
:103B60001268002AF5D01B8A013B1340F1D131467F
:103B7000284605F1740200F003F9EAE72046FFF752
:103B800047FC204601A9FFF733FC02460028DBD1A1
:103B9000E4E700BF0000000000000000000000009B
:103BA000113110B550F82140CCB1202383F3118896
:103BB00004216018FEF7F4FCD4F8842404F10C000E
:103BC0001368527903EB8203DB689B695968FFF73E
:103BD000E7FA2046FFF7BCFE002383F3118810BDEF
:103BE000704700BF0000000000000000000000005F
:103BF00010B5044690F8763080F87E3001F090FCE5
:103C000063681B6813B12046012198470323237082
:103C100010BD00BF00000000000000000000000018
:103C200001F02EBC000000000000000000000000B9
:103C300030B400F144052946002301241A464360AC
:103C4000047000F1280343F8042FAB424FF0000446
:103C500041F8042FF7D10481448130BC704700BF84
:103C600038B50546202383F311880020696005F1EB
:103C7000080305F1280243F8040F93424FF00004B3
:103C8000F9D1284601F004FC02232B7084F311883B
:103C900038BD00BF00000000000000000000000070
:103CA00010B52023044683F3118801F019FC204647
:103CB000012300F8083B04F12802002340F8043FE8
:103CC00090424FF00004F9D1FDF79AFE84F3118879
:103CD00010BD00BF00000000000000000000000058
:103CE00070B50646506906EB810314460D46DA604E
:103CF00018B10021102209F02BFBA06918B1002196
:103D0000102209F025FB30462946BDE8704001F03D
:103D100017BC00BF00000000000000000000000011
:103D20000289438902F0010203F001030281438109
:103D300000F1280100F10C03002243F8042F8B420C
:103D4000FBD101F095BC00BF0000000000000000A6
:103D5000F0B500EB8106D6F80CE047890126DEF8C5
:103D600018408E403E4300274681A26084E88800C8
:103D7000BDE8F04001F0DCBC0000000000000000E5
:103D8000F0B500EB8106D6F80CE007890126DEF8D5
:103D900014408E403E4300270681A26084E88800DC
:103DA000BDE8F04001F0ECBC0000000000000000A5
:103DB00070B504460023022219460270A0F87C3038
:103DC00080F87E3080F87F300381438100F1280243
:103DD00000F1080343F8041F93424FF00005F9D1A6
:103DE00084F86450204601F01BFC63681B6823B113
:103DF00020462946BDE87040184770BD000000000D
:103E0000426810B412680478052180F8804001707F
:103E10001AB104215DF8044B10475DF8044B70475C
:103E2000426890F88010126801700AB105211047AD
:103E3000704700BF0000000000000000000000000C
:103E4000F8B50446002380F8643000F1740201F0F4
:103E50004FFC63689B6813B320469847F8B1E56E42
:103E600094F8743094F87B1094F87A2042EA012296
:103E7000AA423CBF1546E2661B067AD4002D68D1E3
:103E8000052384F86430202383F3118820462946D3
:103E90002A462B46FFF774FF85F31188F8BD94F886
:103EA000743013F0600711D02046002101F0A8FC07
:103EB0002046002101F08CFC63681B6813B120468A
:103EC00006219847062384F86430F8BD94F87550AD
:103ED00003F07F0242EA0526B6F5407F00F0048138
:103EE00016D9B6F5C06F00F0E68062D9B6F5106F4E
:103EF0006DD040F60242964200F0D680B6F5006FD3
:103F0000D2D104F17F0201252767A266E566A9E701
:103F1000022E00F0AF8040F2A580B6F5807F6BD016
:103F2000B6F5817FC0D194F87620002ABCD194F8F0
:103F3000782012F00F0107D01506204600F1F0801E
:103F400001F076FC94F874300025A566E5662567D7
:103F500088E7042384F86430202383F31188002148
:103F6000E36E2046A26EFFF7F3FE002383F3118871
:103F7000F8BD7DB1012384F86430202383F31188D8
:103F80000021E36E2046A26EFFF7FAFE002383F3C2
:103F90001188F8BD032384F86430202383F311884B
:103FA000204629462A462B46FFF7D2FE85F3118884
:103FB000F8BD40F2023296422ED0B6F5A06F7FF4E3
:103FC00073AF5C4AA766E7663D4622674AE794F806
:103FD000762094F87F109142B6D02378042B2DD010
:103FE0004AB3636884F87F201B680422227013B3ED
:103FF0002046022198471EE094F87620012A7FF49B
:1040000053AFB4F87C20A76622F00202E766276768
:104010003D46A4F87C2025E794F87620002A7FF41A
:1040200043AF94F8782012F00F018DD0120620468D
:104030007BD401F0CDFB94F8743085E7202383F323
:1040400011882046FFF76CFE87F31188636884F8B7
:104050007F701B68032121700BB12046984794F8AC
:104060007620BDE7EEB904F17C0202252667A26640
:10407000E566F7E694F87810204611F0800F01F01D
:104080000F0141D101F014FB012841D002287FF437
:104090000BAF294BE066A3662767054694F874309A
:1040A000E0E6012E7FF400AF244902250022A1663C
:1040B000E5662267D6E6616894F8792094F878304E
:1040C0004D6843EA0223204694F8771094F876204E
:1040D000A84700283FF4E8AE43680568A366E56694
:1040E000276794F87430BDE694F87620012A7FF4AF
:1040F000DBAEB4F87C20A76642F00202E7662767D1
:104100003D46A4F87C20ADE601F0E2FA0128BDD1DD
:104110000B4BE666A3662767354694F87430A1E634
:1041200001F09EFB94F874300EE701F069FB94F8FF
:10413000743009E7F13B0008B0D50008A0D50008AD
:10414000C0D50008000000000000000000000000D2
:1041500038B590F864300446062B15D8DFE803F034
:104160000415250404350400002101F049FB204614
:10417000002101F02DFB63681B6813B12046062166
:104180009847062384F8643038BD90F87B1090F887
:104190007A30C26E43EA0123934206D9C3681D8A6E
:1041A000B2FBF5F305FB1325B5B1032384F86430A6
:1041B000202383F3118800210B4620460A46FFF78F
:1041C000C7FD002383F3118838BD036F03B19847FF
:1041D000002384F8643038BD202383F311882946F6
:1041E0002A462B46FFF7CCFD85F31188022384F87D
:1041F000643038BD00000000000000000000000036
:1042000090F8642038B5062A0AD80123934013F0A9
:10421000670F044611D113F0080502D1DB061DD447
:1042200038BDC3689B695B68002BF9D1036F03B18C
:104230009847002384F8643038BD002101F0E0FA8B
:104240002046002101F0C4FA63681B6813B12046C0
:1042500006219847062384F8643038BD052380F88A
:104260006430202383F3118829462A462B46FFF722
:1042700087FD85F3118838BD0000000000000000B4
:1042800043099B0010B4090100F1604403F160434D
:1042900000F01F00012204F5614403F561438240F0
:1042A000C9B284F80013C3F880211A605DF8044B8A
:1042B000704700BF00000000000000000000000088
:1042C000084910B4430900F01F040122A240203322
:1042D0000024084441F8232080F800435DF8044B93
:1042E000704700BF00E100E0000000000000000097
:1042F000090100F16040C9B200F56D4001767047D8
:1043000070B5184CD4F8C83094F8D820196894F8CF
:10431000D950D14011F00F010AD0134801FA02F62A
:1043200050F835205E601AB100EBC5004068904738
:10433000D4F8DC2094F8EC00116894F8ED40C1400A
:1043400011F00F010AD0084B01FA00F053F8345075
:1043500050601DB103EBC4035868A847BDE8704026
:10436000FEF796BED0D50008B8120020000000006D
:104370000C4B4FF0FF310022186919611A61D8689F
:10438000D960DA60DA69084942F08052DA61DA69A4
:1043900042F00062DA610B6843F480730B6000F056
:1043A0003FB900BF00100240007000400000000054
:1043B0001F4B19461A6842F001021A600B681C4A2A
:1043C0009B07FBD511461368002003F0F903136027
:1043D00050604B68164A13F00C0FFAD1114613685F
:1043E00043F4803313600B68114A9803FBD51146E0
:1043F000536843F4E8135360136843F08073136009
:104400000B680B4A9B01FBD5114610B4094B0A4CB3
:10441000122054601860536843F0020353604B68E5
:1044200003F00C03082BFAD15DF8044B704700BF72
:10443000001002400020024000E41D0000000000C7
:1044400008B5074B196811F00F0105D0054A5960EE
:1044500013680BB150689847BDE80840FEF718BED6
:1044600000000240B8120020000000000000000020
:10447000094B1968C1F3031159B1084810B5846894
:104480000A015A600CB1C068A047BDE81040FEF7B1
:10449000FFBDFEF7FDBD00BF00000240B8120020C6
:1044A000094B1968C1F3032159B1084810B50469D3
:1044B0000A025A600CB14069A047BDE81040FEF7FF
:1044C000E7BDFEF7E5BD00BF00000240B8120020C6
:1044D000094B1968C1F3033159B1084810B5846913
:1044E0000A035A600CB1C069A047BDE81040FEF74E
:1044F000CFBDFEF7CDBD00BF00000240B8120020C6
:10450000094B1968C1F3034159B1084810B5046A51
:104510000A045A600CB1406AA047BDE81040FEF79B
:10452000B7BDFEF7B5BD00BF00000240B8120020C5
:10453000094B1968C1F3035159B1084810B5846A91
:104540000A055A600CB1C06AA047BDE81040FEF7EA
:104550009FBDFEF79DBD00BF00000240B8120020C5
:10456000094B1968C1F3036159B1084810B5046BD0
:104570000A065A600CB1406BA047BDE81040FEF738
:1045800087BDFEF785BD00BF00000240B8120020C5
:1045900008B5074B196811F00F0105D0054A59609D
:1045A000936B0BB1D06B9847BDE80840FEF770BD28
:1045B00000040240B81200200000000000000000CB
:1045C000094B1968C1F3031159B1084810B5046CBF
:1045D0000A015A600CB1406CA047BDE81040FEF7DC
:1045E00057BDFEF755BD00BF00040240B8120020C1
:1045F000094B1968C1F3032159B1084810B5846CFF
:104600000A025A600CB1C06CA047BDE81040FEF72A
:104610003FBDFEF73DBD00BF00040240B8120020C0
:1046200000200346014630B4094D0A4A0A4C28606E
:1046300050681432016044F8331001330C2BF7D169
:104640000649074A4FF0FF334B6030BC5360704758
:1046500018130020D0D50008B81200200000024036
:104660000004024000000000000000000000000004
:10467000F8B5214F467C01243D6804FA06FE1EEA87
:10468000050F37D11D4C04EBC60ECEF804306B0677
:1046900044F8362004D11A4C636943F00103636186
:1046A00015F4786F04D1164C636943F0020363611B
:1046B00004464368D4F800C01E680F2026F00F0699
:1046C0001E6094F810E0A66800FA0EF035424FF034
:1046D000000ECCF80400C3F800E004D11AB1A07CAD
:1046E000FFF7CEFD3D68627C012393401D433D6092
:1046F0000020F8BD2046F8BD18130020B812002095
:104700000010024000000000000000000000000057
:1047100038B5144D417C2A6801238B40846822EA15
:10472000030323422B6016D00F4A002002EBC10482
:1047300042F831005A06606004D10C494A6922F0FF
:1047400001024A6113F4786F04D1084A536923F0D7
:104750000203536138BD0446807CFFF7B1FD617CE4
:104760002B68E1E718130020B81200200010024067
:1047700008B5202383F31188FCF79AFF002383F305
:104780001188BDE80840FEF783BC00BF00000000B0
:1047900048F69F40044B00210722586099600B2087
:1047A00008211A60FFF7A4BD10E000E0000000003F
:1047B000F8B5164C00272046FEF72AFF144B42F2AC
:1047C0008A5E19461348DFF850C08269012642F418
:1047D00000720925C4F818C0C4F81CE06361826146
:1047E0005F609E609D608B68094A1B07FBD4114681
:1047F000052393608B68064A13F00403FAD1054938
:1048000093608B6923F400738B61F8BD1C13002047
:104810000024014000100240D0D500080000000034
:104820001E49F0B48B691E4A43F4FE7343F0010342
:104830008B6103681B4ED36083681B4D53604368D4
:104840001A4C1360C368A1F57841F360476902F51B
:10485000A05277600769164B37608669EE60066A7A
:104860006E60C6692E60456AE560C56A6560856AE6
:104870002560046BCC60846B4C60446B0C60C16B36
:10488000F0BCD160416C5160016C1160826CDA60E7
:10489000026D5A60C26C1A60704700BF001002407F
:1048A00000080140000C01400010014000140140CC
:1048B0000020014000000000000000000000000097
:1048C000032AF0B52CD0042A08BF416100231C46FE
:1048D0001D461E46DFF84CE008271EF8022011F0A6
:1048E000800F4FEA05154FEA03134FEA06164FEA09
:1048F00004140CBF45F00F05134311F4004F0CBF17
:1049000046F00F061443013F4FEA4101E7D14268E8
:10491000164034434460026815402B430360F0BDE9
:104920000161D3E7C0D600080000000000000000CD
:1049300038B50B070546446B02D50948FCF770FEF5
:104940002A6B0F2350681568016821F00F01016080
:10495000127C93406B60636843F40073636038BDFE
:10496000E0D6000800000000000000000000000089
:10497000F8B50B070546446B02D51348FCF750FE0B
:10498000EA6A0F23566817683168202021F00F016A
:104990003160127C93407B60636823F480536360D2
:1049A000236823F480632360236843F40073236047
:1049B00080F31188002105F11C00FDF779F900232F
:1049C00083F31188F8BD00BFE0D6000800000000A6
:1049D0003A4870B5446B3A4AA369656945EA0343AE
:1049E00023F07F4393424CD01ED8073A93423CD0E9
:1049F0000132934210D16268C36A22F400725B688C
:104A000062601A6842F001021A60626842F48052E1
:104A100062605B68012B4BD915F00A0F18BFA369C0
:104A2000BDE87040FEF734BB264A934212D00232F2
:104A30009342F1D1C36A5B685E683EB32368028C1F
:104A400043F4A06342F0010202842360BDE8704099
:104A5000FEF71EBB6368026B23F400735268636049
:104A6000136843F001031360D6E7038C1A0A0BD0D6
:104A700003F0010343F0F00302F006021343236145
:104A8000CAE7038CC3F347032361C5E763682022A9
:104A900023F400736360236843F40073236082F39C
:104AA00011881C303146FDF703F986F31188B3E70E
:104AB000236823F480632360AEE700BF3C1300202B
:104AC0000800030082000700000000000000000052
:104AD0003649F8B5486B0D6B4769D5F804E0BAB2B2
:104AE00002F45F43DB434361DEF80060CB6A26F0EB
:104AF0000F06CEF800602E7C0F242D6804FA06FE07
:104B00005E68C5F804E03568D3F800E025F00F05CD
:104B100035601D7C02F48073AC409BB2CEF804403B
:104B2000002B3AD18B60950544BF43F002038B60A4
:104B300054050AD5446843F0040324F40074446027
:104B4000046844F4007404608B60160544BF43F0AD
:104B500008038B60550444BF43F020038B60D404EA
:104B600013D543F0100338048B601AD4202383F349
:104B700011880F486FF00101FDF79AF8002383F3C5
:104B80001188BDE8F840FEF783BA3A0409D4002B37
:104B9000ECD1BDE8F840FEF77BBA012423468C60D7
:104BA000C1E743F040038B60E0E700BF3C13002007
:104BB000581300200000000000000000000000006A
:104BC00010B5074C2046FEF733FD064B0649002082
:104BD000A3F11402E0616163E362226310BD00BFD0
:104BE0003C13002020D600080058004000000000C0
:104BF000F8B503789A218A22012B04468162426229
:104C0000456B3ED02B464FF6C076E16A226BD1F859
:104C100004C0D2F804E005F110014FF400474FF44E
:104C200010600022CCF80810CEF808102F602A601F
:104C30006860596864680E406068277A5E605968E9
:104C40003D4E41F02401B04259604ADD3B49884263
:104C500007DC022F64D0032F55D048F6FF720B21DA
:104C60001962DA6121781A68022992B245D00329C3
:104C700040D0012931D01A602B6843F001032B602A
:104C8000F8BD2F4B9842BDD12E4E00223369C06A29
:104C900043F4800333610521326123462A4AFFF73A
:104CA000E7FC2A4A05212346206BFFF7E1FCF36964
:104CB000212043F48003F3610521FFF7E1FA22206C
:104CC0000521FFF7DDFA626AA36A42F4405243F419
:104CD0004053A3626262636B95E722F00A0292B2CC
:104CE000C9E71B49420091FBF2F22521C2F30B02F6
:104CF0001962B6E742F00A02BDE722F0080292B25A
:104D000042F00202B7E700EB8002114902EB820297
:104D100091FBF2F26FEA82426FEA924292B29EE710
:104D20000B4900EB400291FBF2F26FEA42426FEA5C
:104D3000524292B293E700BFA0860100801A06009B
:104D40003C1300200010024071490008314900085E
:104D500000512502000000000000000000000000DB
:104D60000378012B28D070B50446006B636B416853
:104D700000224FF400451D601A605A605A610B68AA
:104D8000E26A23F00F030B60057C01680F2303FA2E
:104D900005F655684E602968166821F00F012960F4
:104DA000127C93407360FFF7B3FCE06AFFF7B0FC3E
:104DB000084B9C4201D070BD70472120FFF780FA5C
:104DC0002220FFF77DFA044AD36923F48003D361DC
:104DD000F1E700BF3C13002000100240000000007B
:104DE0002DE9F04749000025944698460184446B1C
:104DF0008560089A099BBDF828A085F31188076B88
:104E0000C66AD0F82490816AD7F804E07768184E13
:104E1000CEF80010CEF80CC0CEF80480C7F8009091
:104E2000FA607B60F28B202792B201E085F3118853
:104E300087F31188A369990702D423689B0508D5D5
:104E4000F38B9B1A9BB2632BF0D94FF0FF30BDE878
:104E5000F0876368514643F40073636023681C3035
:104E600043F480732360BDE8F047FCF711BF00BF37
:104E700060110020000000000000000000000000A1
:104E8000F8B50F4D0F4F2846FEF73AFC0E4E0F4B6C
:104E900004243846AB612C74FEF732FC0C4D4FF005
:104EA00080433046BB613C74FEF72AFC094B284620
:104EB000B3613474FEF724FC074B2C74AB61F8BD6E
:104EC0007413002090130020AC130020002C01402C
:104ED000C81300200004004000080040000000004B
:104EE000836970B51A69DC6805461440E2B2D243A2
:104EF000A6071A6103D543681B6903B19847600789
:104F000004D56B689B690BB128469847210704D5E7
:104F10006B681B6A0BB128469847E20604D56B689C
:104F20009B6A0BB128469847E30706D56B689B68D8
:104F30001BB12846BDE87040184770BD0000000056
:104F400008B50348FFF7CCFFBDE80840FEF7A0B85E
:104F500074130020000000000000000000000000AA
:104F600008B50348FFF7BCFFBDE80840FEF790B85E
:104F7000741300200000000000000000000000008A
:104F800008B50348FFF7ACFFBDE80840FEF780B85E
:104F9000901300200000000000000000000000004E
:104FA00008B50348FFF79CFFBDE80840FEF770B85E
:104FB000AC13002000000000000000000000000012
:104FC00008B50348FFF78CFFBDE80840FEF760B85E
:104FD000C8130020000000000000000000000000D6
:104FE000024AD36843F08003D3607047004C00400E
:104FF000F8B5434ED6F85451EF682B68DA059CB2E9
:105000004FD4202383F3118814F02F0F08D129E007
:10501000A00669681DD42C68A4B214F02F0F21D00B
:105020002307F5D014F0080F0CBF00218021E00702
:1050300048BF41F02001A20748BF41F0400163078B
:1050400048BF41F480712F48FDF7AAFAA0066968AD
:10505000E1D5C9B22A48FEF7D3FB2C68A4B214F0FC
:105060002F0FDDD1002383F31188390601D52206E5
:1050700026D4630611D5202383F31188726CB36C98
:105080001F489A4229D04FF6BF736FF040023B4051
:10509000EB6000232A6083F31188BDE8F840FDF738
:1050A000F7BF202383F311884FF40071301DFDF703
:1050B00077FA6FF480732B60002383F31188A0E7E5
:1050C000202383F311881048FDF70AFE00280CDB2B
:1050D0006860002383F31188CBE7836B002BD2D069
:1050E00004301021FDF75CFACDE706480821FDF7F2
:1050F00057FA4FF63F733B4043F04003EB60E8E75D
:10510000E4130020E8130020141400200000000025
:1051100010B5054C00212046044AFEF741FB044B24
:10512000C4F8543110BD00BFE4130020E14F000863
:10513000004C0040000000000000000000000000E3
:1051400038B5194C037A002918BF0C46012B0546C7
:105150001CD02168154AD5F85431B2FBF1F29A609F
:10516000A288E088218942F4045240F0400042F0D5
:105170002C0241F0010192B280B289B20024186180
:105180005961DA601C601A685B6838BD084B984248
:10519000DFD1084A3420D3690C2143F40023D361C2
:1051A000FFF76EF8D5E700BFF0D6000800512502E2
:1051B000E413002000100240000000000000000086
:1051C000144B10B41C6D000104F1804404F5C0447C
:1051D0002358002A03F10053204403F54053426052
:1051E0004FEA430313DD541E6408043303EB8404C5
:1051F000023100E0043311F8022C11F8010CA34233
:1052000042EA002201F1020143F8042CF2D15DF8D8
:10521000044B7047005C00400000000000000000EC
:105220002DE9F04F934B83B05D6C6F0500F1138156
:105230002E0500F10481EC0408D58E4B9A6C100405
:1052400040F110818B4B6FF480525A64A9050BD545
:10525000DFF824A2DAF80430DB680BB15046984737
:10526000844B6FF400725A642A0440F1B780DFF86F
:1052700008A205F00F05AC0004F1804404F5B84421
:10528000D4F80080AE1C0AEB860318F0800F5F682C
:105290002FD0D7F814E02368DEF80400DEF80C10F5
:1052A00023F47843DEF8002023F0F003084443F4AD
:1052B00000432360CEF80400101A00F0A6803A8A5A
:1052C000DEF80830824228BF02461944CEF80C208E
:1052D000CEF808102846FFF773FF236823F4F04345
:1052E00023F0400383F0300343F4004343F0800392
:1052F000236018F4004F6CD0236818F4006F23F477
:10530000784323F0F00343F08003236040F08F8064
:10531000584BD7F818E01B6DDEF808B003F1804356
:1053200003F5C04303EB05139A68DB6802F10059EB
:10533000C3F3090C09F54059BCF1010F01934FEA81
:10534000490962461AD948460BF1020350F8041B7A
:10535000023A4FEA1128012A03F8021C03F8018CD3
:1053600003F10203F2D8ACF102035B08019A0133A6
:1053700002F0010209EB83090BEB430B1AB1D9F8D8
:1053800000308BF80030BEF80C007F8ADEF8081081
:10539000DEF80420DEF80030013880B26144624457
:1053A000CCEB03036745AEF80C00CEF80810CEF83E
:1053B0000420CEF8003016D8A8B1236823F4904317
:1053C00023F0700383F4405343F4004343F080031D
:1053D0002360284B5D6C2B043FF54BAF03B0BDE859
:1053E000F04FFDF755BE0AEB86067268BAF80A3030
:1053F0000121A940D26823EA0103AAF80A30002A51
:10540000E7D029461C489047E3E71B4BD7F808C074
:105410001A890123AB4022EA0303174A1381BCF126
:10542000000F3FF466AF10462946E04761E70AEBFC
:105430008606736829465B680F489847C9E70D4B95
:105440006FF400611A6C0C4842F008021A64596447
:10545000FEF7D6FCEFE66FF480625A640648FEF76A
:10546000A7FCE5E61A6C044822F008021A64FEF76D
:10547000D7FCE7E6005C00403C150020000000007F
:105480000148FEF7D5BB00BF3C150020000000001E
:1054900038B50378012B00D038BD0D4A0446904240
:1054A00004D02046BDE83840FEF782BC09490A4DC9
:1054B000CA69132042F40002CA612B640D21FEF771
:1054C000DFFE14200E21FEF7DBFE00232B64E8E74D
:1054D0003C15002000100240005C0040000000006D
:1054E00008B50378012B00D008BD094B9842FBD1C9
:1054F0001320FEF7E5FE1420FEF7E2FE054B064AF8
:1055000003211964D36923F40003D361ECE700BFDE
:105510003C150020005C004000100240000000002C
:1055200090F87E30024A43F08003D364704700BF96
:10553000005C0040000000000000000000000000CF
:1055400000EB8103F0B5DE68336813F0030357D036
:10555000022B61D9032B53D14FF4C0642F4B7269D6
:105560001B6D0F0103F1804303F5C043DD1982B1C8
:10557000328A4FF0000EC5F804E0D0F884E0013222
:1055800022F001027244C0F8842044F0200443F861
:1055900007E0B369CBB1728A3E2A02F1FF3332D9F8
:1055A00043F01F0301335B116FEAC3636FEA534398
:1055B0009BB2EB60D0F88430013222F001021A4431
:1055C000C0F8842044F40054AB6047F6700244EA0B
:1055D000010323F4784323F0F003890043F40043EC
:1055E00001F1804101F5B84143F080030B600B6885
:1055F0002240534043F4004343F080030B60F0BD6E
:105600004FF40074AAE743F00103013303EBD373B3
:105610005B0203F47C43CCE700249FE7005C00407E
:105620004168F0B5C9680D4B00290D4D4FF00004DD
:105630000CBF4FF41C474FF41E474FF0800E40261E
:105640001C6521465C64C3F84CE01F64C0F88460AC
:10565000C560BDE8F040FFF773BF00BF005C0040CD
:1056600000D700080000000000000000000000005B
:1056700010B448F280044023C0F8843001218B002C
:1056800003F1804303F5B8431A68013142F4004244
:1056900042F0800208291A601C60F0D15DF8044BCA
:1056A000704700BF00000000000000000000000084
:1056B000054B53F8210010F4405004D0B0F5805F42
:1056C0000CBF012002207047005C00400000000079
:1056D000054B53F8210010F0300003D010280CBF08
:1056E00001200220704700BF005C00400000000065
:1056F0000B4B02F108001B6D03F1804303F5C0431F
:1057000003EB01118B6803F1005303F540535B0079
:1057100053F8041B22F8021B8242F9D1704700BFE4
:10572000005C0040000000000000000000000000DD
:1057300000EB8100C06882691368BBB1408A013BFD
:105740000344B3FBF0F39381890001F1804101F53B
:10575000B8410B6823F4904323F0700383F4405363
:1057600043F4004343F080030B60704701239381AF
:10577000EAE700BF00000000000000000000000099
:1057800000EB810038B5C3680C465D691A8A2B6846
:1057900008469A4228BF1A46A968EA60FFF710FD3A
:1057A000A10001F1804101F5B8410B6823F4F043F9
:1057B00023F0400383F0300343F4004343F08003BD
:1057C0000B6038BD00000000000000000000000079
:1057D000890001F1804101F5B8410B6823F4904341
:1057E00023F0700383F4805343F4004343F08003B9
:1057F0000B60704700000000000000000000000087
:10580000890001F1804101F5B8410B6823F4F043B0
:1058100023F0400383F0100343F4004343F080037C
:105820000B60704700000000000000000000000056
:10583000890001F1804101F5B8410B6803F4405340
:10584000B3F5405F09D00B6823F4F04323F0400325
:1058500043F4204343F080030B60704700000000D6
:10586000890001F1804101F5B8410B6803F0300374
:10587000302B0BD00B6823F4F04323F0400383F06C
:10588000200343F4004343F080030B60704700BFE4
:10589000FEF78EBD000000000000000000000000C8
:1058A000024A536843F000735360704700000140A0
:1058B000124B134A9B699269196810B441F00201B6
:1058C000196011680F4841F002011160817911F0EF
:1058D000010F0D4906BF0C68486891E81100546338
:1058E000186489685DF8044BD963196821F00201D6
:1058F0001960136823F002031360704790130020AF
:10590000AC13002008080020DC1500200000000077
:105910000C4B0D499B691A6842F002021A608A78A2
:1059200012F0010F094A1ABF5068116892E803008B
:105930001864D96392689A631A6822F002021A60A6
:10594000704700BFAC13002008080020DC150020C1
:1059500070B4202383F31188184A194B946998690D
:105960002168002541F002012160016841F0020137
:10597000016085F3118813499869897A946911F057
:10598000010F114906BF0E684D6891E8600006647A
:10599000A5638C682021C46381F3118891699A6999
:1059A0000B68002023F002030B60136823F002034E
:1059B000136080F3118870BC704700BF9013002003
:1059C000C813002008080020DC150020000000009B
:1059D0002DE9F843164601EB810104464800FBF728
:1059E000C9F9002E3AD10546204606F001F92946AC
:1059F000FBF716FA4449FBF709F9FBF701FC434EA4
:105A000030602046FAF790FD3DA3D3E9002380469D
:105A10008946FAF72BFCFBF7A3F806F0E9F82946CC
:105A2000FBF7FEF93849FBF7F1F8FBF7E9FB34A384
:105A3000D3E90023706049464046FAF715FCFBF7AE
:105A40008FF806F0D5F82946FBF7EAF92E49FBF75F
:105A5000DDF8FBF7D5FBB060BDE8F8832C49FBF718
:105A6000DFF92C4906462046FBF7DAF906F0C0F8C4
:105A70002949FBF789FA0746204606F0B9F8394666
:105A8000FBF7C4F83146FBF7CBF91F49FBF7BEF82B
:105A9000FBF7B6FB1D4D28602046FAF745FD18A31D
:105AA000D3E9002380468946FAF7E0FBFBF758F874
:105AB00006F09EF83946FBF7A9F83146FBF7B0F936
:105AC0001149FBF7A3F8FBF79BFB0DA3D3E90023D8
:105AD000686049464046FAF7C7FBFBF741F806F015
